{
  "contractName": "Buffalos",
  "abi": [
    {
      "inputs": [
        {
          "internalType": "string",
          "name": "name",
          "type": "string"
        },
        {
          "internalType": "string",
          "name": "symbol",
          "type": "string"
        },
        {
          "internalType": "string",
          "name": "URI",
          "type": "string"
        },
        {
          "internalType": "uint256",
          "name": "initialSupply",
          "type": "uint256"
        },
        {
          "internalType": "uint256",
          "name": "startDate",
          "type": "uint256"
        },
        {
          "internalType": "address",
          "name": "_artist",
          "type": "address"
        },
        {
          "internalType": "address",
          "name": "_txFeeToken",
          "type": "address"
        },
        {
          "internalType": "uint256",
          "name": "_txFeeAmount",
          "type": "uint256"
        }
      ],
      "stateMutability": "nonpayable",
      "type": "constructor"
    },
    {
      "anonymous": false,
      "inputs": [
        {
          "indexed": true,
          "internalType": "address",
          "name": "owner",
          "type": "address"
        },
        {
          "indexed": true,
          "internalType": "address",
          "name": "approved",
          "type": "address"
        },
        {
          "indexed": true,
          "internalType": "uint256",
          "name": "tokenId",
          "type": "uint256"
        }
      ],
      "name": "Approval",
      "type": "event"
    },
    {
      "anonymous": false,
      "inputs": [
        {
          "indexed": true,
          "internalType": "address",
          "name": "owner",
          "type": "address"
        },
        {
          "indexed": true,
          "internalType": "address",
          "name": "operator",
          "type": "address"
        },
        {
          "indexed": false,
          "internalType": "bool",
          "name": "approved",
          "type": "bool"
        }
      ],
      "name": "ApprovalForAll",
      "type": "event"
    },
    {
      "anonymous": false,
      "inputs": [
        {
          "indexed": false,
          "internalType": "address",
          "name": "buyer",
          "type": "address"
        },
        {
          "indexed": false,
          "internalType": "uint256",
          "name": "amount",
          "type": "uint256"
        }
      ],
      "name": "BuffaloBought",
      "type": "event"
    },
    {
      "anonymous": false,
      "inputs": [
        {
          "indexed": true,
          "internalType": "address",
          "name": "previousOwner",
          "type": "address"
        },
        {
          "indexed": true,
          "internalType": "address",
          "name": "newOwner",
          "type": "address"
        }
      ],
      "name": "OwnershipTransferred",
      "type": "event"
    },
    {
      "anonymous": false,
      "inputs": [
        {
          "indexed": true,
          "internalType": "address",
          "name": "from",
          "type": "address"
        },
        {
          "indexed": true,
          "internalType": "address",
          "name": "to",
          "type": "address"
        },
        {
          "indexed": true,
          "internalType": "uint256",
          "name": "tokenId",
          "type": "uint256"
        }
      ],
      "name": "Transfer",
      "type": "event"
    },
    {
      "inputs": [],
      "name": "BASE_RATE",
      "outputs": [
        {
          "internalType": "uint256",
          "name": "",
          "type": "uint256"
        }
      ],
      "stateMutability": "view",
      "type": "function",
      "constant": true
    },
    {
      "inputs": [],
      "name": "MAX_SUPPLY",
      "outputs": [
        {
          "internalType": "uint256",
          "name": "",
          "type": "uint256"
        }
      ],
      "stateMutability": "view",
      "type": "function",
      "constant": true
    },
    {
      "inputs": [
        {
          "internalType": "address",
          "name": "to",
          "type": "address"
        },
        {
          "internalType": "uint256",
          "name": "tokenId",
          "type": "uint256"
        }
      ],
      "name": "approve",
      "outputs": [],
      "stateMutability": "nonpayable",
      "type": "function"
    },
    {
      "inputs": [],
      "name": "artist",
      "outputs": [
        {
          "internalType": "address",
          "name": "",
          "type": "address"
        }
      ],
      "stateMutability": "view",
      "type": "function",
      "constant": true
    },
    {
      "inputs": [
        {
          "internalType": "address",
          "name": "owner",
          "type": "address"
        }
      ],
      "name": "balanceOf",
      "outputs": [
        {
          "internalType": "uint256",
          "name": "",
          "type": "uint256"
        }
      ],
      "stateMutability": "view",
      "type": "function",
      "constant": true
    },
    {
      "inputs": [],
      "name": "baseURI",
      "outputs": [
        {
          "internalType": "string",
          "name": "",
          "type": "string"
        }
      ],
      "stateMutability": "view",
      "type": "function",
      "constant": true
    },
    {
      "inputs": [],
      "name": "blockStart",
      "outputs": [
        {
          "internalType": "uint256",
          "name": "",
          "type": "uint256"
        }
      ],
      "stateMutability": "view",
      "type": "function",
      "constant": true
    },
    {
      "inputs": [],
      "name": "cost",
      "outputs": [
        {
          "internalType": "uint256",
          "name": "",
          "type": "uint256"
        }
      ],
      "stateMutability": "view",
      "type": "function",
      "constant": true
    },
    {
      "inputs": [
        {
          "internalType": "address",
          "name": "",
          "type": "address"
        }
      ],
      "name": "excludedList",
      "outputs": [
        {
          "internalType": "bool",
          "name": "",
          "type": "bool"
        }
      ],
      "stateMutability": "view",
      "type": "function",
      "constant": true
    },
    {
      "inputs": [
        {
          "internalType": "uint256",
          "name": "tokenId",
          "type": "uint256"
        }
      ],
      "name": "getApproved",
      "outputs": [
        {
          "internalType": "address",
          "name": "",
          "type": "address"
        }
      ],
      "stateMutability": "view",
      "type": "function",
      "constant": true
    },
    {
      "inputs": [
        {
          "internalType": "address",
          "name": "owner",
          "type": "address"
        },
        {
          "internalType": "address",
          "name": "operator",
          "type": "address"
        }
      ],
      "name": "isApprovedForAll",
      "outputs": [
        {
          "internalType": "bool",
          "name": "",
          "type": "bool"
        }
      ],
      "stateMutability": "view",
      "type": "function",
      "constant": true
    },
    {
      "inputs": [],
      "name": "maxMintAmount",
      "outputs": [
        {
          "internalType": "uint256",
          "name": "",
          "type": "uint256"
        }
      ],
      "stateMutability": "view",
      "type": "function",
      "constant": true
    },
    {
      "inputs": [],
      "name": "metaDataExt",
      "outputs": [
        {
          "internalType": "string",
          "name": "",
          "type": "string"
        }
      ],
      "stateMutability": "view",
      "type": "function",
      "constant": true
    },
    {
      "inputs": [],
      "name": "mintable",
      "outputs": [
        {
          "internalType": "bool",
          "name": "",
          "type": "bool"
        }
      ],
      "stateMutability": "view",
      "type": "function",
      "constant": true
    },
    {
      "inputs": [],
      "name": "name",
      "outputs": [
        {
          "internalType": "string",
          "name": "",
          "type": "string"
        }
      ],
      "stateMutability": "view",
      "type": "function",
      "constant": true
    },
    {
      "inputs": [],
      "name": "owner",
      "outputs": [
        {
          "internalType": "address",
          "name": "",
          "type": "address"
        }
      ],
      "stateMutability": "view",
      "type": "function",
      "constant": true
    },
    {
      "inputs": [
        {
          "internalType": "uint256",
          "name": "tokenId",
          "type": "uint256"
        }
      ],
      "name": "ownerOf",
      "outputs": [
        {
          "internalType": "address",
          "name": "",
          "type": "address"
        }
      ],
      "stateMutability": "view",
      "type": "function",
      "constant": true
    },
    {
      "inputs": [],
      "name": "renounceOwnership",
      "outputs": [],
      "stateMutability": "nonpayable",
      "type": "function"
    },
    {
      "inputs": [
        {
          "internalType": "address",
          "name": "from",
          "type": "address"
        },
        {
          "internalType": "address",
          "name": "to",
          "type": "address"
        },
        {
          "internalType": "uint256",
          "name": "tokenId",
          "type": "uint256"
        }
      ],
      "name": "safeTransferFrom",
      "outputs": [],
      "stateMutability": "nonpayable",
      "type": "function"
    },
    {
      "inputs": [
        {
          "internalType": "address",
          "name": "from",
          "type": "address"
        },
        {
          "internalType": "address",
          "name": "to",
          "type": "address"
        },
        {
          "internalType": "uint256",
          "name": "tokenId",
          "type": "uint256"
        },
        {
          "internalType": "bytes",
          "name": "_data",
          "type": "bytes"
        }
      ],
      "name": "safeTransferFrom",
      "outputs": [],
      "stateMutability": "nonpayable",
      "type": "function"
    },
    {
      "inputs": [
        {
          "internalType": "address",
          "name": "operator",
          "type": "address"
        },
        {
          "internalType": "bool",
          "name": "approved",
          "type": "bool"
        }
      ],
      "name": "setApprovalForAll",
      "outputs": [],
      "stateMutability": "nonpayable",
      "type": "function"
    },
    {
      "inputs": [
        {
          "internalType": "bytes4",
          "name": "interfaceId",
          "type": "bytes4"
        }
      ],
      "name": "supportsInterface",
      "outputs": [
        {
          "internalType": "bool",
          "name": "",
          "type": "bool"
        }
      ],
      "stateMutability": "view",
      "type": "function",
      "constant": true
    },
    {
      "inputs": [],
      "name": "symbol",
      "outputs": [
        {
          "internalType": "string",
          "name": "",
          "type": "string"
        }
      ],
      "stateMutability": "view",
      "type": "function",
      "constant": true
    },
    {
      "inputs": [
        {
          "internalType": "uint256",
          "name": "index",
          "type": "uint256"
        }
      ],
      "name": "tokenByIndex",
      "outputs": [
        {
          "internalType": "uint256",
          "name": "",
          "type": "uint256"
        }
      ],
      "stateMutability": "view",
      "type": "function",
      "constant": true
    },
    {
      "inputs": [
        {
          "internalType": "address",
          "name": "owner",
          "type": "address"
        },
        {
          "internalType": "uint256",
          "name": "index",
          "type": "uint256"
        }
      ],
      "name": "tokenOfOwnerByIndex",
      "outputs": [
        {
          "internalType": "uint256",
          "name": "",
          "type": "uint256"
        }
      ],
      "stateMutability": "view",
      "type": "function",
      "constant": true
    },
    {
      "inputs": [],
      "name": "totalSupply",
      "outputs": [
        {
          "internalType": "uint256",
          "name": "",
          "type": "uint256"
        }
      ],
      "stateMutability": "view",
      "type": "function",
      "constant": true
    },
    {
      "inputs": [
        {
          "internalType": "address",
          "name": "from",
          "type": "address"
        },
        {
          "internalType": "address",
          "name": "to",
          "type": "address"
        },
        {
          "internalType": "uint256",
          "name": "tokenId",
          "type": "uint256"
        }
      ],
      "name": "transferFrom",
      "outputs": [],
      "stateMutability": "nonpayable",
      "type": "function"
    },
    {
      "inputs": [
        {
          "internalType": "address",
          "name": "newOwner",
          "type": "address"
        }
      ],
      "name": "transferOwnership",
      "outputs": [],
      "stateMutability": "nonpayable",
      "type": "function"
    },
    {
      "inputs": [],
      "name": "txFeeAmount",
      "outputs": [
        {
          "internalType": "uint256",
          "name": "",
          "type": "uint256"
        }
      ],
      "stateMutability": "view",
      "type": "function",
      "constant": true
    },
    {
      "inputs": [],
      "name": "txFeeToken",
      "outputs": [
        {
          "internalType": "address",
          "name": "",
          "type": "address"
        }
      ],
      "stateMutability": "view",
      "type": "function",
      "constant": true
    },
    {
      "inputs": [],
      "name": "uri",
      "outputs": [
        {
          "internalType": "string",
          "name": "",
          "type": "string"
        }
      ],
      "stateMutability": "view",
      "type": "function",
      "constant": true
    },
    {
      "inputs": [
        {
          "internalType": "address",
          "name": "",
          "type": "address"
        }
      ],
      "name": "whitelisted",
      "outputs": [
        {
          "internalType": "bool",
          "name": "",
          "type": "bool"
        }
      ],
      "stateMutability": "view",
      "type": "function",
      "constant": true
    },
    {
      "inputs": [
        {
          "internalType": "uint256",
          "name": "amount",
          "type": "uint256"
        }
      ],
      "name": "getNFTPrice",
      "outputs": [
        {
          "internalType": "uint256",
          "name": "",
          "type": "uint256"
        }
      ],
      "stateMutability": "view",
      "type": "function",
      "constant": true
    },
    {
      "inputs": [
        {
          "internalType": "address",
          "name": "excluded",
          "type": "address"
        },
        {
          "internalType": "bool",
          "name": "status",
          "type": "bool"
        }
      ],
      "name": "setExcluded",
      "outputs": [],
      "stateMutability": "nonpayable",
      "type": "function"
    },
    {
      "inputs": [
        {
          "internalType": "uint256",
          "name": "startDate",
          "type": "uint256"
        }
      ],
      "name": "setBlockStart",
      "outputs": [],
      "stateMutability": "nonpayable",
      "type": "function"
    },
    {
      "inputs": [
        {
          "internalType": "uint256",
          "name": "startDate",
          "type": "uint256"
        }
      ],
      "name": "updateBlockStart",
      "outputs": [],
      "stateMutability": "nonpayable",
      "type": "function"
    },
    {
      "inputs": [],
      "name": "getBlockStart",
      "outputs": [
        {
          "internalType": "uint256",
          "name": "",
          "type": "uint256"
        }
      ],
      "stateMutability": "view",
      "type": "function",
      "constant": true
    },
    {
      "inputs": [],
      "name": "ApproveContract",
      "outputs": [],
      "stateMutability": "nonpayable",
      "type": "function"
    },
    {
      "inputs": [
        {
          "internalType": "uint256",
          "name": "numberofBuffalos",
          "type": "uint256"
        }
      ],
      "name": "mintBuffalo",
      "outputs": [],
      "stateMutability": "payable",
      "type": "function",
      "payable": true
    },
    {
      "inputs": [
        {
          "internalType": "bool",
          "name": "mintFlag",
          "type": "bool"
        }
      ],
      "name": "canMint",
      "outputs": [],
      "stateMutability": "nonpayable",
      "type": "function"
    },
    {
      "inputs": [
        {
          "internalType": "uint256",
          "name": "amount",
          "type": "uint256"
        }
      ],
      "name": "withdraw",
      "outputs": [],
      "stateMutability": "nonpayable",
      "type": "function"
    },
    {
      "inputs": [
        {
          "internalType": "string",
          "name": "URI",
          "type": "string"
        }
      ],
      "name": "changeBaseURI",
      "outputs": [],
      "stateMutability": "nonpayable",
      "type": "function"
    },
    {
      "inputs": [
        {
          "internalType": "uint256",
          "name": "supply",
          "type": "uint256"
        }
      ],
      "name": "changeMaxSupply",
      "outputs": [],
      "stateMutability": "nonpayable",
      "type": "function"
    },
    {
      "inputs": [
        {
          "internalType": "uint256",
          "name": "price",
          "type": "uint256"
        }
      ],
      "name": "updateMintPrice",
      "outputs": [],
      "stateMutability": "nonpayable",
      "type": "function"
    },
    {
      "inputs": [
        {
          "internalType": "address",
          "name": "_owner",
          "type": "address"
        }
      ],
      "name": "walletOfOwner",
      "outputs": [
        {
          "internalType": "uint256[]",
          "name": "",
          "type": "uint256[]"
        }
      ],
      "stateMutability": "view",
      "type": "function",
      "constant": true
    },
    {
      "inputs": [
        {
          "internalType": "uint256",
          "name": "tokenId",
          "type": "uint256"
        }
      ],
      "name": "tokenURI",
      "outputs": [
        {
          "internalType": "string",
          "name": "",
          "type": "string"
        }
      ],
      "stateMutability": "view",
      "type": "function",
      "constant": true
    },
    {
      "inputs": [
        {
          "internalType": "uint256",
          "name": "_newCost",
          "type": "uint256"
        }
      ],
      "name": "setCost",
      "outputs": [],
      "stateMutability": "nonpayable",
      "type": "function"
    },
    {
      "inputs": [
        {
          "internalType": "uint256",
          "name": "_newmaxMintAmount",
          "type": "uint256"
        }
      ],
      "name": "setmaxMintAmount",
      "outputs": [],
      "stateMutability": "nonpayable",
      "type": "function"
    },
    {
      "inputs": [
        {
          "internalType": "string",
          "name": "_newBaseURI",
          "type": "string"
        }
      ],
      "name": "setBaseURI",
      "outputs": [],
      "stateMutability": "nonpayable",
      "type": "function"
    },
    {
      "inputs": [
        {
          "internalType": "address",
          "name": "_user",
          "type": "address"
        }
      ],
      "name": "whitelistUser",
      "outputs": [],
      "stateMutability": "nonpayable",
      "type": "function"
    },
    {
      "inputs": [
        {
          "internalType": "address",
          "name": "_user",
          "type": "address"
        }
      ],
      "name": "removeWhitelistUser",
      "outputs": [],
      "stateMutability": "nonpayable",
      "type": "function"
    }
  ],
  "bytecode": "0x6080604052670de0b6b3a7640000600f556040518060400160405280600581526020017f2e6a736f6e000000000000000000000000000000000000000000000000000000815250601590805190602001906200005d9291906200036f565b506001601660006101000a81548160ff0219169083151502179055503480156200008657600080fd5b506040516200588d3803806200588d8339818101604052810190620000ac9190620004bf565b87878160009080519060200190620000c69291906200036f565b508060019080519060200190620000df9291906200036f565b50505062000102620000f6620001c260201b60201c565b620001ca60201b60201c565b62000113866200029060201b60201c565b62000124846200033b60201b60201c565b82601160006101000a81548173ffffffffffffffffffffffffffffffffffffffff021916908373ffffffffffffffffffffffffffffffffffffffff16021790555081601260006101000a81548173ffffffffffffffffffffffffffffffffffffffff021916908373ffffffffffffffffffffffffffffffffffffffff1602179055508060108190555084600c819055505050505050505050620007e5565b600033905090565b6000600a60009054906101000a900473ffffffffffffffffffffffffffffffffffffffff16905081600a60006101000a81548173ffffffffffffffffffffffffffffffffffffffff021916908373ffffffffffffffffffffffffffffffffffffffff1602179055508173ffffffffffffffffffffffffffffffffffffffff168173ffffffffffffffffffffffffffffffffffffffff167f8be0079c531659141344cd1fd0a4f28419497f9722a3daafe3b4186f6b6457e060405160405180910390a35050565b620002a0620001c260201b60201c565b73ffffffffffffffffffffffffffffffffffffffff16620002c66200034560201b60201c565b73ffffffffffffffffffffffffffffffffffffffff16146200031f576040517f08c379a000000000000000000000000000000000000000000000000000000000815260040162000316906200060f565b60405180910390fd5b8060139080519060200190620003379291906200036f565b5050565b80600b8190555050565b6000600a60009054906101000a900473ffffffffffffffffffffffffffffffffffffffff16905090565b8280546200037d906200071d565b90600052602060002090601f016020900481019282620003a15760008555620003ed565b82601f10620003bc57805160ff1916838001178555620003ed565b82800160010185558215620003ed579182015b82811115620003ec578251825591602001919060010190620003cf565b5b509050620003fc919062000400565b5090565b5b808211156200041b57600081600090555060010162000401565b5090565b600062000436620004308462000665565b62000631565b9050828152602081018484840111156200044f57600080fd5b6200045c848285620006e7565b509392505050565b6000815190506200047581620007b1565b92915050565b600082601f8301126200048d57600080fd5b81516200049f8482602086016200041f565b91505092915050565b600081519050620004b981620007cb565b92915050565b600080600080600080600080610100898b031215620004dd57600080fd5b600089015167ffffffffffffffff811115620004f857600080fd5b620005068b828c016200047b565b985050602089015167ffffffffffffffff8111156200052457600080fd5b620005328b828c016200047b565b975050604089015167ffffffffffffffff8111156200055057600080fd5b6200055e8b828c016200047b565b9650506060620005718b828c01620004a8565b9550506080620005848b828c01620004a8565b94505060a0620005978b828c0162000464565b93505060c0620005aa8b828c0162000464565b92505060e0620005bd8b828c01620004a8565b9150509295985092959890939650565b6000620005dc60208362000698565b91507f4f776e61626c653a2063616c6c6572206973206e6f7420746865206f776e65726000830152602082019050919050565b600060208201905081810360008301526200062a81620005cd565b9050919050565b6000604051905081810181811067ffffffffffffffff821117156200065b576200065a62000782565b5b8060405250919050565b600067ffffffffffffffff82111562000683576200068262000782565b5b601f19601f8301169050602081019050919050565b600082825260208201905092915050565b6000620006b682620006bd565b9050919050565b600073ffffffffffffffffffffffffffffffffffffffff82169050919050565b6000819050919050565b60005b8381101562000707578082015181840152602081019050620006ea565b8381111562000717576000848401525b50505050565b600060028204905060018216806200073657607f821691505b602082108114156200074d576200074c62000753565b5b50919050565b7f4e487b7100000000000000000000000000000000000000000000000000000000600052602260045260246000fd5b7f4e487b7100000000000000000000000000000000000000000000000000000000600052604160045260246000fd5b620007bc81620006a9565b8114620007c857600080fd5b50565b620007d681620006dd565b8114620007e257600080fd5b50565b61509880620007f56000396000f3fe6080604052600436106102e35760003560e01c80634e80f0f1116101905780638fbceaad116100dc578063b88d4fde11610095578063e2db1a301161006f578063e2db1a3014610b3a578063e985e9c514610b63578063eac989f814610ba0578063f2fde38b14610bcb576102e3565b8063b88d4fde14610a97578063c87b56dd14610ac0578063d936547e14610afd576102e3565b80638fbceaad146109a857806392976179146109d357806392dd3de514610a1057806395d89b4114610a27578063a22cb46514610a52578063b2ca781414610a7b576102e3565b80636c0360eb1161014957806377c567a71161012357806377c567a7146108fe5780637b2feaaa146109295780637f00c7a6146109545780638da5cb5b1461097d576102e3565b80636c0360eb1461087f57806370a08231146108aa578063715018a6146108e7576102e3565b80634e80f0f11461074b5780634f6ccce71461077457806355f804b3146107b15780635600d2fa146107da5780636352211e146108175780636b870e4414610854576102e3565b80632f745c591161024f57806342842e0e1161020857806344a0d68a116101e257806344a0d68a146106a557806346e8597a146106ce5780634a4c560d146106f75780634bf365df14610720576102e3565b806342842e0e14610614578063438b63001461063d57806343bc16121461067a576102e3565b80632f745c591461050657806330cc7ae01461054357806332cb6b0c1461056c57806339a0c6f914610597578063404c7cdd146105c057806341910f90146105e9576102e3565b806318160ddd116102a157806318160ddd1461040a578063239c70ae1461043557806323b872dd1461046057806325ae270b146104895780632836be24146104b45780632e1a7d4d146104dd576102e3565b8062728e46146102e857806301ffc9a71461031157806306fdde031461034e578063081812fc14610379578063095ea7b3146103b657806313faede6146103df575b600080fd5b3480156102f457600080fd5b5061030f600480360381019061030a9190613c40565b610bf4565b005b34801561031d57600080fd5b5061033860048036038101906103339190613bad565b610c7a565b6040516103459190614824565b60405180910390f35b34801561035a57600080fd5b50610363610cf4565b604051610370919061483f565b60405180910390f35b34801561038557600080fd5b506103a0600480360381019061039b9190613c40565b610d86565b6040516103ad9190614712565b60405180910390f35b3480156103c257600080fd5b506103dd60048036038101906103d89190613b1f565b610e0b565b005b3480156103eb57600080fd5b506103f4610f23565b6040516104019190614b61565b60405180910390f35b34801561041657600080fd5b5061041f610f29565b60405161042c9190614b61565b60405180910390f35b34801561044157600080fd5b5061044a610f36565b6040516104579190614b61565b60405180910390f35b34801561046c57600080fd5b5061048760048036038101906104829190613a19565b610f3c565b005b34801561049557600080fd5b5061049e610f9c565b6040516104ab9190614b61565b60405180910390f35b3480156104c057600080fd5b506104db60048036038101906104d69190613ae3565b610fa6565b005b3480156104e957600080fd5b5061050460048036038101906104ff9190613c40565b611091565b005b34801561051257600080fd5b5061052d60048036038101906105289190613b1f565b611157565b60405161053a9190614b61565b60405180910390f35b34801561054f57600080fd5b5061056a600480360381019061056591906139b4565b6111fc565b005b34801561057857600080fd5b506105816112d3565b60405161058e9190614b61565b60405180910390f35b3480156105a357600080fd5b506105be60048036038101906105b99190613bff565b6112d9565b005b3480156105cc57600080fd5b506105e760048036038101906105e29190613c40565b611361565b005b3480156105f557600080fd5b506105fe6113e7565b60405161060b9190614b61565b60405180910390f35b34801561062057600080fd5b5061063b60048036038101906106369190613a19565b6113ed565b005b34801561064957600080fd5b50610664600480360381019061065f91906139b4565b61140d565b6040516106719190614802565b60405180910390f35b34801561068657600080fd5b5061068f611507565b60405161069c9190614712565b60405180910390f35b3480156106b157600080fd5b506106cc60048036038101906106c79190613c40565b61152d565b005b3480156106da57600080fd5b506106f560048036038101906106f09190613c40565b6115b3565b005b34801561070357600080fd5b5061071e600480360381019061071991906139b4565b61167e565b005b34801561072c57600080fd5b50610735611755565b6040516107429190614824565b60405180910390f35b34801561075757600080fd5b50610772600480360381019061076d9190613b5b565b611768565b005b34801561078057600080fd5b5061079b60048036038101906107969190613c40565b611801565b6040516107a89190614b61565b60405180910390f35b3480156107bd57600080fd5b506107d860048036038101906107d39190613bff565b611898565b005b3480156107e657600080fd5b5061080160048036038101906107fc91906139b4565b61192e565b60405161080e9190614824565b60405180910390f35b34801561082357600080fd5b5061083e60048036038101906108399190613c40565b61194e565b60405161084b9190614712565b60405180910390f35b34801561086057600080fd5b50610869611a00565b604051610876919061483f565b60405180910390f35b34801561088b57600080fd5b50610894611a8e565b6040516108a1919061483f565b60405180910390f35b3480156108b657600080fd5b506108d160048036038101906108cc91906139b4565b611b1c565b6040516108de9190614b61565b60405180910390f35b3480156108f357600080fd5b506108fc611bd4565b005b34801561090a57600080fd5b50610913611c5c565b6040516109209190614712565b60405180910390f35b34801561093557600080fd5b5061093e611c82565b60405161094b9190614b61565b60405180910390f35b34801561096057600080fd5b5061097b60048036038101906109769190613c40565b611c88565b005b34801561098957600080fd5b50610992611d0e565b60405161099f9190614712565b60405180910390f35b3480156109b457600080fd5b506109bd611d38565b6040516109ca9190614b61565b60405180910390f35b3480156109df57600080fd5b506109fa60048036038101906109f59190613c40565b611d3e565b604051610a079190614b61565b60405180910390f35b348015610a1c57600080fd5b50610a25611d5c565b005b348015610a3357600080fd5b50610a3c611e1d565b604051610a49919061483f565b60405180910390f35b348015610a5e57600080fd5b50610a796004803603810190610a749190613ae3565b611eaf565b005b610a956004803603810190610a909190613c40565b612030565b005b348015610aa357600080fd5b50610abe6004803603810190610ab99190613a68565b6122b1565b005b348015610acc57600080fd5b50610ae76004803603810190610ae29190613c40565b612313565b604051610af4919061483f565b60405180910390f35b348015610b0957600080fd5b50610b246004803603810190610b1f91906139b4565b6123bd565b604051610b319190614824565b60405180910390f35b348015610b4657600080fd5b50610b616004803603810190610b5c9190613c40565b6123dd565b005b348015610b6f57600080fd5b50610b8a6004803603810190610b8591906139dd565b6123e7565b604051610b979190614824565b60405180910390f35b348015610bac57600080fd5b50610bb561247b565b604051610bc2919061483f565b60405180910390f35b348015610bd757600080fd5b50610bf26004803603810190610bed91906139b4565b612509565b005b610bfc612601565b73ffffffffffffffffffffffffffffffffffffffff16610c1a611d0e565b73ffffffffffffffffffffffffffffffffffffffff1614610c70576040517f08c379a0000000000000000000000000000000000000000000000000000000008152600401610c6790614a61565b60405180910390fd5b80600f8190555050565b60007f780e9d63000000000000000000000000000000000000000000000000000000007bffffffffffffffffffffffffffffffffffffffffffffffffffffffff1916827bffffffffffffffffffffffffffffffffffffffffffffffffffffffff19161480610ced5750610cec82612609565b5b9050919050565b606060008054610d0390614e8d565b80601f0160208091040260200160405190810160405280929190818152602001828054610d2f90614e8d565b8015610d7c5780601f10610d5157610100808354040283529160200191610d7c565b820191906000526020600020905b815481529060010190602001808311610d5f57829003601f168201915b5050505050905090565b6000610d91826126eb565b610dd0576040517f08c379a0000000000000000000000000000000000000000000000000000000008152600401610dc790614a41565b60405180910390fd5b6004600083815260200190815260200160002060009054906101000a900473ffffffffffffffffffffffffffffffffffffffff169050919050565b6000610e168261194e565b90508073ffffffffffffffffffffffffffffffffffffffff168373ffffffffffffffffffffffffffffffffffffffff161415610e87576040517f08c379a0000000000000000000000000000000000000000000000000000000008152600401610e7e90614ac1565b60405180910390fd5b8073ffffffffffffffffffffffffffffffffffffffff16610ea6612601565b73ffffffffffffffffffffffffffffffffffffffff161480610ed55750610ed481610ecf612601565b6123e7565b5b610f14576040517f08c379a0000000000000000000000000000000000000000000000000000000008152600401610f0b906149c1565b60405180910390fd5b610f1e8383612757565b505050565b600d5481565b6000600880549050905090565b600e5481565b610f4d610f47612601565b82612810565b610f8c576040517f08c379a0000000000000000000000000000000000000000000000000000000008152600401610f8390614b21565b60405180910390fd5b610f978383836128ee565b505050565b6000600b54905090565b601160009054906101000a900473ffffffffffffffffffffffffffffffffffffffff1673ffffffffffffffffffffffffffffffffffffffff163373ffffffffffffffffffffffffffffffffffffffff1614611036576040517f08c379a000000000000000000000000000000000000000000000000000000000815260040161102d90614921565b60405180910390fd5b80601860008473ffffffffffffffffffffffffffffffffffffffff1673ffffffffffffffffffffffffffffffffffffffff16815260200190815260200160002060006101000a81548160ff0219169083151502179055505050565b611099612601565b73ffffffffffffffffffffffffffffffffffffffff166110b7611d0e565b73ffffffffffffffffffffffffffffffffffffffff161461110d576040517f08c379a000000000000000000000000000000000000000000000000000000000815260040161110490614a61565b60405180910390fd5b3373ffffffffffffffffffffffffffffffffffffffff166108fc829081150290604051600060405180830381858888f19350505050158015611153573d6000803e3d6000fd5b5050565b600061116283611b1c565b82106111a3576040517f08c379a000000000000000000000000000000000000000000000000000000000815260040161119a90614881565b60405180910390fd5b600660008473ffffffffffffffffffffffffffffffffffffffff1673ffffffffffffffffffffffffffffffffffffffff168152602001908152602001600020600083815260200190815260200160002054905092915050565b611204612601565b73ffffffffffffffffffffffffffffffffffffffff16611222611d0e565b73ffffffffffffffffffffffffffffffffffffffff1614611278576040517f08c379a000000000000000000000000000000000000000000000000000000000815260040161126f90614a61565b60405180910390fd5b6000601760008373ffffffffffffffffffffffffffffffffffffffff1673ffffffffffffffffffffffffffffffffffffffff16815260200190815260200160002060006101000a81548160ff02191690831515021790555050565b600c5481565b6112e1612601565b73ffffffffffffffffffffffffffffffffffffffff166112ff611d0e565b73ffffffffffffffffffffffffffffffffffffffff1614611355576040517f08c379a000000000000000000000000000000000000000000000000000000000815260040161134c90614a61565b60405180910390fd5b61135e81611898565b50565b611369612601565b73ffffffffffffffffffffffffffffffffffffffff16611387611d0e565b73ffffffffffffffffffffffffffffffffffffffff16146113dd576040517f08c379a00000000000000000000000000000000000000000000000000000000081526004016113d490614a61565b60405180910390fd5b80600c8190555050565b600f5481565b611408838383604051806020016040528060008152506122b1565b505050565b6060600061141a83611b1c565b905060008167ffffffffffffffff81111561145e577f4e487b7100000000000000000000000000000000000000000000000000000000600052604160045260246000fd5b60405190808252806020026020018201604052801561148c5781602001602082028036833780820191505090505b50905060005b828110156114fc576114a48582611157565b8282815181106114dd577f4e487b7100000000000000000000000000000000000000000000000000000000600052603260045260246000fd5b60200260200101818152505080806114f490614ebf565b915050611492565b508092505050919050565b601160009054906101000a900473ffffffffffffffffffffffffffffffffffffffff1681565b611535612601565b73ffffffffffffffffffffffffffffffffffffffff16611553611d0e565b73ffffffffffffffffffffffffffffffffffffffff16146115a9576040517f08c379a00000000000000000000000000000000000000000000000000000000081526004016115a090614a61565b60405180910390fd5b80600d8190555050565b6115bb612601565b73ffffffffffffffffffffffffffffffffffffffff166115d9611d0e565b73ffffffffffffffffffffffffffffffffffffffff161461162f576040517f08c379a000000000000000000000000000000000000000000000000000000000815260040161162690614a61565b60405180910390fd5b600b54421115611674576040517f08c379a000000000000000000000000000000000000000000000000000000000815260040161166b90614901565b60405180910390fd5b80600b8190555050565b611686612601565b73ffffffffffffffffffffffffffffffffffffffff166116a4611d0e565b73ffffffffffffffffffffffffffffffffffffffff16146116fa576040517f08c379a00000000000000000000000000000000000000000000000000000000081526004016116f190614a61565b60405180910390fd5b6001601760008373ffffffffffffffffffffffffffffffffffffffff1673ffffffffffffffffffffffffffffffffffffffff16815260200190815260200160002060006101000a81548160ff02191690831515021790555050565b601660009054906101000a900460ff1681565b611770612601565b73ffffffffffffffffffffffffffffffffffffffff1661178e611d0e565b73ffffffffffffffffffffffffffffffffffffffff16146117e4576040517f08c379a00000000000000000000000000000000000000000000000000000000081526004016117db90614a61565b60405180910390fd5b80601660006101000a81548160ff02191690831515021790555050565b600061180b610f29565b821061184c576040517f08c379a000000000000000000000000000000000000000000000000000000000815260040161184390614b41565b60405180910390fd5b60088281548110611886577f4e487b7100000000000000000000000000000000000000000000000000000000600052603260045260246000fd5b90600052602060002001549050919050565b6118a0612601565b73ffffffffffffffffffffffffffffffffffffffff166118be611d0e565b73ffffffffffffffffffffffffffffffffffffffff1614611914576040517f08c379a000000000000000000000000000000000000000000000000000000000815260040161190b90614a61565b60405180910390fd5b806013908051906020019061192a9291906137c3565b5050565b60186020528060005260406000206000915054906101000a900460ff1681565b6000806002600084815260200190815260200160002060009054906101000a900473ffffffffffffffffffffffffffffffffffffffff169050600073ffffffffffffffffffffffffffffffffffffffff168173ffffffffffffffffffffffffffffffffffffffff1614156119f7576040517f08c379a00000000000000000000000000000000000000000000000000000000081526004016119ee90614a01565b60405180910390fd5b80915050919050565b60158054611a0d90614e8d565b80601f0160208091040260200160405190810160405280929190818152602001828054611a3990614e8d565b8015611a865780601f10611a5b57610100808354040283529160200191611a86565b820191906000526020600020905b815481529060010190602001808311611a6957829003601f168201915b505050505081565b60138054611a9b90614e8d565b80601f0160208091040260200160405190810160405280929190818152602001828054611ac790614e8d565b8015611b145780601f10611ae957610100808354040283529160200191611b14565b820191906000526020600020905b815481529060010190602001808311611af757829003601f168201915b505050505081565b60008073ffffffffffffffffffffffffffffffffffffffff168273ffffffffffffffffffffffffffffffffffffffff161415611b8d576040517f08c379a0000000000000000000000000000000000000000000000000000000008152600401611b84906149e1565b60405180910390fd5b600360008373ffffffffffffffffffffffffffffffffffffffff1673ffffffffffffffffffffffffffffffffffffffff168152602001908152602001600020549050919050565b611bdc612601565b73ffffffffffffffffffffffffffffffffffffffff16611bfa611d0e565b73ffffffffffffffffffffffffffffffffffffffff1614611c50576040517f08c379a0000000000000000000000000000000000000000000000000000000008152600401611c4790614a61565b60405180910390fd5b611c5a6000612b4a565b565b601260009054906101000a900473ffffffffffffffffffffffffffffffffffffffff1681565b600b5481565b611c90612601565b73ffffffffffffffffffffffffffffffffffffffff16611cae611d0e565b73ffffffffffffffffffffffffffffffffffffffff1614611d04576040517f08c379a0000000000000000000000000000000000000000000000000000000008152600401611cfb90614a61565b60405180910390fd5b80600e8190555050565b6000600a60009054906101000a900473ffffffffffffffffffffffffffffffffffffffff16905090565b60105481565b6000611d55600f5483612c1090919063ffffffff16565b9050919050565b6000601260009054906101000a900473ffffffffffffffffffffffffffffffffffffffff1690508073ffffffffffffffffffffffffffffffffffffffff1663095ea7b330683635c9adc5dea000006040518363ffffffff1660e01b8152600401611dc79291906147b0565b602060405180830381600087803b158015611de157600080fd5b505af1158015611df5573d6000803e3d6000fd5b505050506040513d601f19601f82011682018060405250810190611e199190613b84565b5050565b606060018054611e2c90614e8d565b80601f0160208091040260200160405190810160405280929190818152602001828054611e5890614e8d565b8015611ea55780601f10611e7a57610100808354040283529160200191611ea5565b820191906000526020600020905b815481529060010190602001808311611e8857829003601f168201915b5050505050905090565b611eb7612601565b73ffffffffffffffffffffffffffffffffffffffff168273ffffffffffffffffffffffffffffffffffffffff161415611f25576040517f08c379a0000000000000000000000000000000000000000000000000000000008152600401611f1c90614961565b60405180910390fd5b8060056000611f32612601565b73ffffffffffffffffffffffffffffffffffffffff1673ffffffffffffffffffffffffffffffffffffffff16815260200190815260200160002060008473ffffffffffffffffffffffffffffffffffffffff1673ffffffffffffffffffffffffffffffffffffffff16815260200190815260200160002060006101000a81548160ff0219169083151502179055508173ffffffffffffffffffffffffffffffffffffffff16611fdf612601565b73ffffffffffffffffffffffffffffffffffffffff167f17307eab39ab6107e8899845ad3d59bd9653f200f220920489ca2b5937696c31836040516120249190614824565b60405180910390a35050565b600b54421015612075576040517f08c379a000000000000000000000000000000000000000000000000000000000815260040161206c90614b01565b60405180910390fd5b600c54612080610f29565b106120c0576040517f08c379a00000000000000000000000000000000000000000000000000000000081526004016120b790614ae1565b60405180910390fd5b60008111612103576040517f08c379a00000000000000000000000000000000000000000000000000000000081526004016120fa906149a1565b60405180910390fd5b600c54612117612111610f29565b83612c26565b1115612158576040517f08c379a000000000000000000000000000000000000000000000000000000000815260040161214f90614861565b60405180910390fd5b6000601260009054906101000a900473ffffffffffffffffffffffffffffffffffffffff1690508073ffffffffffffffffffffffffffffffffffffffff166323b872dd33601160009054906101000a900473ffffffffffffffffffffffffffffffffffffffff16670de0b6b3a76400006040518463ffffffff1660e01b81526004016121e69392919061472d565b602060405180830381600087803b15801561220057600080fd5b505af1158015612214573d6000803e3d6000fd5b505050506040513d601f19601f820116820180604052508101906122389190613b84565b5060005b82811015612273576122603382612251610f29565b61225b9190614c9e565b612c3c565b808061226b90614ebf565b91505061223c565b507f152a3f66f8394a939d9860354eb635f358dd886f139a26e3accff04f6d6a132333836040516122a59291906147d9565b60405180910390a15050565b6122c26122bc612601565b83612810565b612301576040517f08c379a00000000000000000000000000000000000000000000000000000000081526004016122f890614b21565b60405180910390fd5b61230d84848484612c5a565b50505050565b606061231e826126eb565b61235d576040517f08c379a000000000000000000000000000000000000000000000000000000000815260040161235490614aa1565b60405180910390fd5b6000612367612cb6565b9050600081511161238757604051806020016040528060008152506123b5565b8061239184612d48565b60156040516020016123a5939291906146e1565b6040516020818303038152906040525b915050919050565b60176020528060005260406000206000915054906101000a900460ff1681565b80600b8190555050565b6000600560008473ffffffffffffffffffffffffffffffffffffffff1673ffffffffffffffffffffffffffffffffffffffff16815260200190815260200160002060008373ffffffffffffffffffffffffffffffffffffffff1673ffffffffffffffffffffffffffffffffffffffff16815260200190815260200160002060009054906101000a900460ff16905092915050565b6014805461248890614e8d565b80601f01602080910402602001604051908101604052809291908181526020018280546124b490614e8d565b80156125015780601f106124d657610100808354040283529160200191612501565b820191906000526020600020905b8154815290600101906020018083116124e457829003601f168201915b505050505081565b612511612601565b73ffffffffffffffffffffffffffffffffffffffff1661252f611d0e565b73ffffffffffffffffffffffffffffffffffffffff1614612585576040517f08c379a000000000000000000000000000000000000000000000000000000000815260040161257c90614a61565b60405180910390fd5b600073ffffffffffffffffffffffffffffffffffffffff168173ffffffffffffffffffffffffffffffffffffffff1614156125f5576040517f08c379a00000000000000000000000000000000000000000000000000000000081526004016125ec906148c1565b60405180910390fd5b6125fe81612b4a565b50565b600033905090565b60007f80ac58cd000000000000000000000000000000000000000000000000000000007bffffffffffffffffffffffffffffffffffffffffffffffffffffffff1916827bffffffffffffffffffffffffffffffffffffffffffffffffffffffff191614806126d457507f5b5e139f000000000000000000000000000000000000000000000000000000007bffffffffffffffffffffffffffffffffffffffffffffffffffffffff1916827bffffffffffffffffffffffffffffffffffffffffffffffffffffffff1916145b806126e457506126e382612ef5565b5b9050919050565b60008073ffffffffffffffffffffffffffffffffffffffff166002600084815260200190815260200160002060009054906101000a900473ffffffffffffffffffffffffffffffffffffffff1673ffffffffffffffffffffffffffffffffffffffff1614159050919050565b816004600083815260200190815260200160002060006101000a81548173ffffffffffffffffffffffffffffffffffffffff021916908373ffffffffffffffffffffffffffffffffffffffff160217905550808273ffffffffffffffffffffffffffffffffffffffff166127ca8361194e565b73ffffffffffffffffffffffffffffffffffffffff167f8c5be1e5ebec7d5bd14f71427d1e84f3dd0314c0f7b2291e5b200ac8c7c3b92560405160405180910390a45050565b600061281b826126eb565b61285a576040517f08c379a000000000000000000000000000000000000000000000000000000000815260040161285190614981565b60405180910390fd5b60006128658361194e565b90508073ffffffffffffffffffffffffffffffffffffffff168473ffffffffffffffffffffffffffffffffffffffff1614806128d457508373ffffffffffffffffffffffffffffffffffffffff166128bc84610d86565b73ffffffffffffffffffffffffffffffffffffffff16145b806128e557506128e481856123e7565b5b91505092915050565b8273ffffffffffffffffffffffffffffffffffffffff1661290e8261194e565b73ffffffffffffffffffffffffffffffffffffffff1614612964576040517f08c379a000000000000000000000000000000000000000000000000000000000815260040161295b90614a81565b60405180910390fd5b600073ffffffffffffffffffffffffffffffffffffffff168273ffffffffffffffffffffffffffffffffffffffff1614156129d4576040517f08c379a00000000000000000000000000000000000000000000000000000000081526004016129cb90614941565b60405180910390fd5b6129df838383612f5f565b6129ea600082612757565b6001600360008573ffffffffffffffffffffffffffffffffffffffff1673ffffffffffffffffffffffffffffffffffffffff1681526020019081526020016000206000828254612a3a9190614d7f565b925050819055506001600360008473ffffffffffffffffffffffffffffffffffffffff1673ffffffffffffffffffffffffffffffffffffffff1681526020019081526020016000206000828254612a919190614c9e565b92505081905550816002600083815260200190815260200160002060006101000a81548173ffffffffffffffffffffffffffffffffffffffff021916908373ffffffffffffffffffffffffffffffffffffffff160217905550808273ffffffffffffffffffffffffffffffffffffffff168473ffffffffffffffffffffffffffffffffffffffff167fddf252ad1be2c89b69c2b068fc378daa952ba7f163c4a11628f55a4df523b3ef60405160405180910390a4505050565b6000600a60009054906101000a900473ffffffffffffffffffffffffffffffffffffffff16905081600a60006101000a81548173ffffffffffffffffffffffffffffffffffffffff021916908373ffffffffffffffffffffffffffffffffffffffff1602179055508173ffffffffffffffffffffffffffffffffffffffff168173ffffffffffffffffffffffffffffffffffffffff167f8be0079c531659141344cd1fd0a4f28419497f9722a3daafe3b4186f6b6457e060405160405180910390a35050565b60008183612c1e9190614d25565b905092915050565b60008183612c349190614c9e565b905092915050565b612c56828260405180602001604052806000815250613073565b5050565b612c658484846128ee565b612c71848484846130ce565b612cb0576040517f08c379a0000000000000000000000000000000000000000000000000000000008152600401612ca7906148a1565b60405180910390fd5b50505050565b606060138054612cc590614e8d565b80601f0160208091040260200160405190810160405280929190818152602001828054612cf190614e8d565b8015612d3e5780601f10612d1357610100808354040283529160200191612d3e565b820191906000526020600020905b815481529060010190602001808311612d2157829003601f168201915b5050505050905090565b60606000821415612d90576040518060400160405280600181526020017f30000000000000000000000000000000000000000000000000000000000000008152509050612ef0565b600082905060005b60008214612dc2578080612dab90614ebf565b915050600a82612dbb9190614cf4565b9150612d98565b60008167ffffffffffffffff811115612e04577f4e487b7100000000000000000000000000000000000000000000000000000000600052604160045260246000fd5b6040519080825280601f01601f191660200182016040528015612e365781602001600182028036833780820191505090505b5090505b60008514612ee957600182612e4f9190614d7f565b9150600a85612e5e9190614f08565b6030612e6a9190614c9e565b60f81b818381518110612ea6577f4e487b7100000000000000000000000000000000000000000000000000000000600052603260045260246000fd5b60200101907effffffffffffffffffffffffffffffffffffffffffffffffffffffffffffff1916908160001a905350600a85612ee29190614cf4565b9450612e3a565b8093505050505b919050565b60007f01ffc9a7000000000000000000000000000000000000000000000000000000007bffffffffffffffffffffffffffffffffffffffffffffffffffffffff1916827bffffffffffffffffffffffffffffffffffffffffffffffffffffffff1916149050919050565b612f6a838383613265565b600073ffffffffffffffffffffffffffffffffffffffff168373ffffffffffffffffffffffffffffffffffffffff161415612fad57612fa88161326a565b612fec565b8173ffffffffffffffffffffffffffffffffffffffff168373ffffffffffffffffffffffffffffffffffffffff1614612feb57612fea83826132b3565b5b5b600073ffffffffffffffffffffffffffffffffffffffff168273ffffffffffffffffffffffffffffffffffffffff16141561302f5761302a81613420565b61306e565b8273ffffffffffffffffffffffffffffffffffffffff168273ffffffffffffffffffffffffffffffffffffffff161461306d5761306c8282613563565b5b5b505050565b61307d83836135e2565b61308a60008484846130ce565b6130c9576040517f08c379a00000000000000000000000000000000000000000000000000000000081526004016130c0906148a1565b60405180910390fd5b505050565b60006130ef8473ffffffffffffffffffffffffffffffffffffffff166137b0565b15613258578373ffffffffffffffffffffffffffffffffffffffff1663150b7a02613118612601565b8786866040518563ffffffff1660e01b815260040161313a9493929190614764565b602060405180830381600087803b15801561315457600080fd5b505af192505050801561318557506040513d601f19601f820116820180604052508101906131829190613bd6565b60015b613208573d80600081146131b5576040519150601f19603f3d011682016040523d82523d6000602084013e6131ba565b606091505b50600081511415613200576040517f08c379a00000000000000000000000000000000000000000000000000000000081526004016131f7906148a1565b60405180910390fd5b805181602001fd5b63150b7a0260e01b7bffffffffffffffffffffffffffffffffffffffffffffffffffffffff1916817bffffffffffffffffffffffffffffffffffffffffffffffffffffffff19161491505061325d565b600190505b949350505050565b505050565b6008805490506009600083815260200190815260200160002081905550600881908060018154018082558091505060019003906000526020600020016000909190919091505550565b600060016132c084611b1c565b6132ca9190614d7f565b90506000600760008481526020019081526020016000205490508181146133af576000600660008673ffffffffffffffffffffffffffffffffffffffff1673ffffffffffffffffffffffffffffffffffffffff168152602001908152602001600020600084815260200190815260200160002054905080600660008773ffffffffffffffffffffffffffffffffffffffff1673ffffffffffffffffffffffffffffffffffffffff168152602001908152602001600020600084815260200190815260200160002081905550816007600083815260200190815260200160002081905550505b6007600084815260200190815260200160002060009055600660008573ffffffffffffffffffffffffffffffffffffffff1673ffffffffffffffffffffffffffffffffffffffff16815260200190815260200160002060008381526020019081526020016000206000905550505050565b600060016008805490506134349190614d7f565b905060006009600084815260200190815260200160002054905060006008838154811061348a577f4e487b7100000000000000000000000000000000000000000000000000000000600052603260045260246000fd5b9060005260206000200154905080600883815481106134d2577f4e487b7100000000000000000000000000000000000000000000000000000000600052603260045260246000fd5b906000526020600020018190555081600960008381526020019081526020016000208190555060096000858152602001908152602001600020600090556008805480613547577f4e487b7100000000000000000000000000000000000000000000000000000000600052603160045260246000fd5b6001900381819060005260206000200160009055905550505050565b600061356e83611b1c565b905081600660008573ffffffffffffffffffffffffffffffffffffffff1673ffffffffffffffffffffffffffffffffffffffff168152602001908152602001600020600083815260200190815260200160002081905550806007600084815260200190815260200160002081905550505050565b600073ffffffffffffffffffffffffffffffffffffffff168273ffffffffffffffffffffffffffffffffffffffff161415613652576040517f08c379a000000000000000000000000000000000000000000000000000000000815260040161364990614a21565b60405180910390fd5b61365b816126eb565b1561369b576040517f08c379a0000000000000000000000000000000000000000000000000000000008152600401613692906148e1565b60405180910390fd5b6136a760008383612f5f565b6001600360008473ffffffffffffffffffffffffffffffffffffffff1673ffffffffffffffffffffffffffffffffffffffff16815260200190815260200160002060008282546136f79190614c9e565b92505081905550816002600083815260200190815260200160002060006101000a81548173ffffffffffffffffffffffffffffffffffffffff021916908373ffffffffffffffffffffffffffffffffffffffff160217905550808273ffffffffffffffffffffffffffffffffffffffff16600073ffffffffffffffffffffffffffffffffffffffff167fddf252ad1be2c89b69c2b068fc378daa952ba7f163c4a11628f55a4df523b3ef60405160405180910390a45050565b600080823b905060008111915050919050565b8280546137cf90614e8d565b90600052602060002090601f0160209004810192826137f15760008555613838565b82601f1061380a57805160ff1916838001178555613838565b82800160010185558215613838579182015b8281111561383757825182559160200191906001019061381c565b5b5090506138459190613849565b5090565b5b8082111561386257600081600090555060010161384a565b5090565b600061387961387484614bad565b614b7c565b90508281526020810184848401111561389157600080fd5b61389c848285614e4b565b509392505050565b60006138b76138b284614bdd565b614b7c565b9050828152602081018484840111156138cf57600080fd5b6138da848285614e4b565b509392505050565b6000813590506138f181615006565b92915050565b6000813590506139068161501d565b92915050565b60008151905061391b8161501d565b92915050565b60008135905061393081615034565b92915050565b60008151905061394581615034565b92915050565b600082601f83011261395c57600080fd5b813561396c848260208601613866565b91505092915050565b600082601f83011261398657600080fd5b81356139968482602086016138a4565b91505092915050565b6000813590506139ae8161504b565b92915050565b6000602082840312156139c657600080fd5b60006139d4848285016138e2565b91505092915050565b600080604083850312156139f057600080fd5b60006139fe858286016138e2565b9250506020613a0f858286016138e2565b9150509250929050565b600080600060608486031215613a2e57600080fd5b6000613a3c868287016138e2565b9350506020613a4d868287016138e2565b9250506040613a5e8682870161399f565b9150509250925092565b60008060008060808587031215613a7e57600080fd5b6000613a8c878288016138e2565b9450506020613a9d878288016138e2565b9350506040613aae8782880161399f565b925050606085013567ffffffffffffffff811115613acb57600080fd5b613ad78782880161394b565b91505092959194509250565b60008060408385031215613af657600080fd5b6000613b04858286016138e2565b9250506020613b15858286016138f7565b9150509250929050565b60008060408385031215613b3257600080fd5b6000613b40858286016138e2565b9250506020613b518582860161399f565b9150509250929050565b600060208284031215613b6d57600080fd5b6000613b7b848285016138f7565b91505092915050565b600060208284031215613b9657600080fd5b6000613ba48482850161390c565b91505092915050565b600060208284031215613bbf57600080fd5b6000613bcd84828501613921565b91505092915050565b600060208284031215613be857600080fd5b6000613bf684828501613936565b91505092915050565b600060208284031215613c1157600080fd5b600082013567ffffffffffffffff811115613c2b57600080fd5b613c3784828501613975565b91505092915050565b600060208284031215613c5257600080fd5b6000613c608482850161399f565b91505092915050565b6000613c7583836146c3565b60208301905092915050565b613c8a81614db3565b82525050565b6000613c9b82614c32565b613ca58185614c60565b9350613cb083614c0d565b8060005b83811015613ce1578151613cc88882613c69565b9750613cd383614c53565b925050600181019050613cb4565b5085935050505092915050565b613cf781614dc5565b82525050565b6000613d0882614c3d565b613d128185614c71565b9350613d22818560208601614e5a565b613d2b81614ff5565b840191505092915050565b613d3f81614e27565b82525050565b613d4e81614e39565b82525050565b6000613d5f82614c48565b613d698185614c82565b9350613d79818560208601614e5a565b613d8281614ff5565b840191505092915050565b6000613d9882614c48565b613da28185614c93565b9350613db2818560208601614e5a565b80840191505092915050565b60008154613dcb81614e8d565b613dd58186614c93565b94506001821660008114613df05760018114613e0157613e34565b60ff19831686528186019350613e34565b613e0a85614c1d565b60005b83811015613e2c57815481890152600182019150602081019050613e0d565b838801955050505b50505092915050565b6000613e4a604283614c82565b91507f45786365656473206d6178696d756d2042756666616c6f7320737570706c792e60008301527f20506c656173652074727920746f206d696e74206c6573732042756666616c6f60208301527f732e0000000000000000000000000000000000000000000000000000000000006040830152606082019050919050565b6000613ed6602b83614c82565b91507f455243373231456e756d657261626c653a206f776e657220696e646578206f7560008301527f74206f6620626f756e64730000000000000000000000000000000000000000006020830152604082019050919050565b6000613f3c603283614c82565b91507f4552433732313a207472616e7366657220746f206e6f6e20455243373231526560008301527f63656976657220696d706c656d656e74657200000000000000000000000000006020830152604082019050919050565b6000613fa2602683614c82565b91507f4f776e61626c653a206e6577206f776e657220697320746865207a65726f206160008301527f64647265737300000000000000000000000000000000000000000000000000006020830152604082019050919050565b6000614008601c83614c82565b91507f4552433732313a20746f6b656e20616c7265616479206d696e746564000000006000830152602082019050919050565b6000614048601983614c82565b91507f53616c652068617320616c726561647920737461727465642e000000000000006000830152602082019050919050565b6000614088600b83614c82565b91507f617274697374206f6e6c790000000000000000000000000000000000000000006000830152602082019050919050565b60006140c8602483614c82565b91507f4552433732313a207472616e7366657220746f20746865207a65726f2061646460008301527f72657373000000000000000000000000000000000000000000000000000000006020830152604082019050919050565b600061412e601983614c82565b91507f4552433732313a20617070726f766520746f2063616c6c6572000000000000006000830152602082019050919050565b600061416e602c83614c82565b91507f4552433732313a206f70657261746f7220717565727920666f72206e6f6e657860008301527f697374656e7420746f6b656e00000000000000000000000000000000000000006020830152604082019050919050565b60006141d4601b83614c82565b91507f596f752063616e6e6f74206d696e7420302042756666616c6f732e00000000006000830152602082019050919050565b6000614214603883614c82565b91507f4552433732313a20617070726f76652063616c6c6572206973206e6f74206f7760008301527f6e6572206e6f7220617070726f76656420666f7220616c6c00000000000000006020830152604082019050919050565b600061427a602a83614c82565b91507f4552433732313a2062616c616e636520717565727920666f7220746865207a6560008301527f726f2061646472657373000000000000000000000000000000000000000000006020830152604082019050919050565b60006142e0602983614c82565b91507f4552433732313a206f776e657220717565727920666f72206e6f6e657869737460008301527f656e7420746f6b656e00000000000000000000000000000000000000000000006020830152604082019050919050565b6000614346602083614c82565b91507f4552433732313a206d696e7420746f20746865207a65726f20616464726573736000830152602082019050919050565b6000614386602c83614c82565b91507f4552433732313a20617070726f76656420717565727920666f72206e6f6e657860008301527f697374656e7420746f6b656e00000000000000000000000000000000000000006020830152604082019050919050565b60006143ec602083614c82565b91507f4f776e61626c653a2063616c6c6572206973206e6f7420746865206f776e65726000830152602082019050919050565b600061442c602983614c82565b91507f4552433732313a207472616e73666572206f6620746f6b656e2074686174206960008301527f73206e6f74206f776e00000000000000000000000000000000000000000000006020830152604082019050919050565b6000614492602f83614c82565b91507f4552433732314d657461646174613a2055524920717565727920666f72206e6f60008301527f6e6578697374656e7420746f6b656e00000000000000000000000000000000006020830152604082019050919050565b60006144f8602183614c82565b91507f4552433732313a20617070726f76616c20746f2063757272656e74206f776e6560008301527f72000000000000000000000000000000000000000000000000000000000000006020830152604082019050919050565b600061455e601783614c82565b91507f53616c652068617320616c726561647920656e6465642e0000000000000000006000830152602082019050919050565b600061459e603683614c82565b91507f53616c6520686173206e6f7420737461727465642079657420736f20796f752060008301527f63616e2774206765742061207072696365207965742e000000000000000000006020830152604082019050919050565b6000614604603183614c82565b91507f4552433732313a207472616e736665722063616c6c6572206973206e6f74206f60008301527f776e6572206e6f7220617070726f7665640000000000000000000000000000006020830152604082019050919050565b600061466a602c83614c82565b91507f455243373231456e756d657261626c653a20676c6f62616c20696e646578206f60008301527f7574206f6620626f756e647300000000000000000000000000000000000000006020830152604082019050919050565b6146cc81614e1d565b82525050565b6146db81614e1d565b82525050565b60006146ed8286613d8d565b91506146f98285613d8d565b91506147058284613dbe565b9150819050949350505050565b60006020820190506147276000830184613c81565b92915050565b60006060820190506147426000830186613c81565b61474f6020830185613c81565b61475c6040830184613d45565b949350505050565b60006080820190506147796000830187613c81565b6147866020830186613c81565b61479360408301856146d2565b81810360608301526147a58184613cfd565b905095945050505050565b60006040820190506147c56000830185613c81565b6147d26020830184613d36565b9392505050565b60006040820190506147ee6000830185613c81565b6147fb60208301846146d2565b9392505050565b6000602082019050818103600083015261481c8184613c90565b905092915050565b60006020820190506148396000830184613cee565b92915050565b600060208201905081810360008301526148598184613d54565b905092915050565b6000602082019050818103600083015261487a81613e3d565b9050919050565b6000602082019050818103600083015261489a81613ec9565b9050919050565b600060208201905081810360008301526148ba81613f2f565b9050919050565b600060208201905081810360008301526148da81613f95565b9050919050565b600060208201905081810360008301526148fa81613ffb565b9050919050565b6000602082019050818103600083015261491a8161403b565b9050919050565b6000602082019050818103600083015261493a8161407b565b9050919050565b6000602082019050818103600083015261495a816140bb565b9050919050565b6000602082019050818103600083015261497a81614121565b9050919050565b6000602082019050818103600083015261499a81614161565b9050919050565b600060208201905081810360008301526149ba816141c7565b9050919050565b600060208201905081810360008301526149da81614207565b9050919050565b600060208201905081810360008301526149fa8161426d565b9050919050565b60006020820190508181036000830152614a1a816142d3565b9050919050565b60006020820190508181036000830152614a3a81614339565b9050919050565b60006020820190508181036000830152614a5a81614379565b9050919050565b60006020820190508181036000830152614a7a816143df565b9050919050565b60006020820190508181036000830152614a9a8161441f565b9050919050565b60006020820190508181036000830152614aba81614485565b9050919050565b60006020820190508181036000830152614ada816144eb565b9050919050565b60006020820190508181036000830152614afa81614551565b9050919050565b60006020820190508181036000830152614b1a81614591565b9050919050565b60006020820190508181036000830152614b3a816145f7565b9050919050565b60006020820190508181036000830152614b5a8161465d565b9050919050565b6000602082019050614b7660008301846146d2565b92915050565b6000604051905081810181811067ffffffffffffffff82111715614ba357614ba2614fc6565b5b8060405250919050565b600067ffffffffffffffff821115614bc857614bc7614fc6565b5b601f19601f8301169050602081019050919050565b600067ffffffffffffffff821115614bf857614bf7614fc6565b5b601f19601f8301169050602081019050919050565b6000819050602082019050919050565b60008190508160005260206000209050919050565b600081519050919050565b600081519050919050565b600081519050919050565b6000602082019050919050565b600082825260208201905092915050565b600082825260208201905092915050565b600082825260208201905092915050565b600081905092915050565b6000614ca982614e1d565b9150614cb483614e1d565b9250827fffffffffffffffffffffffffffffffffffffffffffffffffffffffffffffffff03821115614ce957614ce8614f39565b5b828201905092915050565b6000614cff82614e1d565b9150614d0a83614e1d565b925082614d1a57614d19614f68565b5b828204905092915050565b6000614d3082614e1d565b9150614d3b83614e1d565b9250817fffffffffffffffffffffffffffffffffffffffffffffffffffffffffffffffff0483118215151615614d7457614d73614f39565b5b828202905092915050565b6000614d8a82614e1d565b9150614d9583614e1d565b925082821015614da857614da7614f39565b5b828203905092915050565b6000614dbe82614dfd565b9050919050565b60008115159050919050565b60007fffffffff0000000000000000000000000000000000000000000000000000000082169050919050565b600073ffffffffffffffffffffffffffffffffffffffff82169050919050565b6000819050919050565b6000614e3282614e1d565b9050919050565b6000614e4482614e1d565b9050919050565b82818337600083830152505050565b60005b83811015614e78578082015181840152602081019050614e5d565b83811115614e87576000848401525b50505050565b60006002820490506001821680614ea557607f821691505b60208210811415614eb957614eb8614f97565b5b50919050565b6000614eca82614e1d565b91507fffffffffffffffffffffffffffffffffffffffffffffffffffffffffffffffff821415614efd57614efc614f39565b5b600182019050919050565b6000614f1382614e1d565b9150614f1e83614e1d565b925082614f2e57614f2d614f68565b5b828206905092915050565b7f4e487b7100000000000000000000000000000000000000000000000000000000600052601160045260246000fd5b7f4e487b7100000000000000000000000000000000000000000000000000000000600052601260045260246000fd5b7f4e487b7100000000000000000000000000000000000000000000000000000000600052602260045260246000fd5b7f4e487b7100000000000000000000000000000000000000000000000000000000600052604160045260246000fd5b6000601f19601f8301169050919050565b61500f81614db3565b811461501a57600080fd5b50565b61502681614dc5565b811461503157600080fd5b50565b61503d81614dd1565b811461504857600080fd5b50565b61505481614e1d565b811461505f57600080fd5b5056fea26469706673582212209a0e9b794f9e58af3be3a71ad6725995799c1da5e82a9c388076bf872a63e74564736f6c63430008000033",
  "immutableReferences": {},
  "source": "// SPDX-License-Identifier: GPL-3.0\r\npragma solidity ^0.8.0;\r\n\r\nimport \"./ERC721Enumerable.sol\";\r\nimport \"./Ownable.sol\";\r\nimport \"./SafeMath.sol\";\r\nimport \"./SafeERC20.sol\";\r\n\r\n\r\n\r\ncontract Buffalos is ERC721Enumerable, Ownable {\r\n\r\n    using SafeMath for uint256;\r\n    using Strings for uint256;\r\n\r\n    // Time of when the sale starts.\r\n    uint256 public blockStart;\r\n\r\n    // Maximum amount of Buffalos in existance. \r\n    uint256 public MAX_SUPPLY;\r\n    uint256 public cost;\r\n    uint256 public maxMintAmount;\r\n    uint256 public BASE_RATE = 10 ** 18;\r\n    uint public txFeeAmount;\r\n    \r\n    address public artist;\r\n    address public txFeeToken;\r\n\r\n    string public baseURI;\r\n    // string public nftName;\r\n    // string public nftUnit;\r\n    string public uri;\r\n    string public metaDataExt = \".json\";\r\n\r\n    bool public mintable = true;\r\n\r\n    mapping(address => bool) public whitelisted;\r\n    mapping(address => bool) public excludedList;\r\n\r\n    event BuffaloBought (address buyer, uint256 amount);\r\n\r\n    constructor(\r\n        string memory name, \r\n        string memory symbol, \r\n        string memory URI,\r\n        uint256 initialSupply, \r\n        uint256 startDate,\r\n        address _artist,\r\n        address _txFeeToken,\r\n        uint _txFeeAmount\r\n    ) ERC721(name, symbol) {\r\n        setBaseURI(URI);\r\n        setBlockStart(startDate);\r\n\r\n        artist = _artist;\r\n        txFeeToken = _txFeeToken;\r\n        txFeeAmount = _txFeeAmount;\r\n        // excludedList[artist] = true;\r\n\r\n        MAX_SUPPLY = initialSupply;        \r\n        // Mint 30 Buffalos for airdrop and gift purposes\r\n    }\r\n\r\n    // public\r\n    function getNFTPrice(uint256 amount) public view returns (uint256) {\r\n        // require(block.timestamp >= blockStart, \"Sale has not started yet so you can't get a price yet.\");\r\n        // require(totalSupply() < MAX_SUPPLY, \"Sale has already ended, no more Buffalos left to sell.\");\r\n        return amount.mul(BASE_RATE);\r\n    }\r\n\r\n    function setExcluded(address excluded, bool status) external {\r\n        require(msg.sender == artist, 'artist only');\r\n        excludedList[excluded] = status;\r\n    }\r\n\r\n    function setBlockStart(uint256 startDate) public {\r\n        blockStart = startDate;\r\n    }\r\n\r\n    function updateBlockStart(uint256 startDate) onlyOwner public {\r\n        require(block.timestamp <= blockStart, \"Sale has already started.\");\r\n        blockStart = startDate;\r\n    }\r\n\r\n    function getBlockStart() public view returns (uint256)  {\r\n        return blockStart;\r\n    }\r\n\r\n    // function transferFrom(address from, address to, uint256 tokenId) public override {\r\n    //     require(_isApprovedOrOwner(_msgSender(), tokenId), \"ERC721: transfer caller isn't authorized\");\r\n    //     if(excludedList[from] == false) {\r\n    //         _payTxFee(from);\r\n    //     }\r\n    //     _transfer(from, to, tokenId);\r\n    // }\r\n\r\n    // function safeTransferFrom(address from, address to, uint256 tokenId) public override {\r\n    //     if(excludedList[from] == false) {\r\n    //         _payTxFee(from);\r\n    //     }\r\n    //     safeTransferFrom(from, to, tokenId, '');\r\n    // }\r\n\r\n    // function safeTransferFrom(address from, address to, uint256 tokenId, bytes memory _data) public override {\r\n    //     require(_isApprovedOrOwner(_msgSender(), tokenId), \"ERC721: transfer caller isn't authorized\");\r\n    //     if(excludedList[from] == false) {\r\n    //         _payTxFee(from);\r\n    //     }\r\n    //     _safeTransfer(from, to, tokenId, _data);\r\n    // }\r\n\r\n    function _payTxFee(address from) internal {\r\n        IERC20 token = IERC20(txFeeToken);\r\n        token.transferFrom(from, artist, txFeeAmount);\r\n    }\r\n\r\n    function ApproveContract() public {\r\n        IERC20 token = IERC20(txFeeToken);\r\n        token.approve(address(this), 1000 * 10 ** 18);\r\n    }\r\n    /**\r\n    * @dev Mints yourself a Buffalo. Or more.\r\n    */\r\n    function mintBuffalo(uint256 numberofBuffalos) public payable {\r\n        // Some exceptions that need to be handled.\r\n        require(block.timestamp >= blockStart, \"Sale has not started yet so you can't get a price yet.\");\r\n        require(totalSupply() < MAX_SUPPLY, \"Sale has already ended.\");\r\n        require(numberofBuffalos > 0, \"You cannot mint 0 Buffalos.\");\r\n        require(SafeMath.add(totalSupply(), numberofBuffalos) <= MAX_SUPPLY, \"Exceeds maximum Buffalos supply. Please try to mint less Buffalos.\");        \r\n        // require(getNFTPrice(numberofBuffalos) <= balanceOf(msg.sender), \"Amount of Token is not sufficient.\");\r\n        \r\n        IERC20 token = IERC20(txFeeToken);  \r\n        token.transferFrom(msg.sender, artist, 10**18);   \r\n        // require(token.transferFrom(msg.sender, artist, getNFTPrice(numberofBuffalos)), \"token transfer failed\");        \r\n\r\n        for(uint256 i=0; i<numberofBuffalos; i++) {\r\n            _safeMint(msg.sender, totalSupply() + i);\r\n        }\r\n\r\n        emit BuffaloBought(msg.sender, numberofBuffalos);\r\n    }\r\n\r\n    /**\r\n    * @dev Withdraw ether from this contract (Callable by owner only)\r\n    */\r\n    \r\n    function canMint(bool mintFlag) onlyOwner public {\r\n        mintable = mintFlag;\r\n    }\r\n\r\n    function withdraw(uint256 amount) onlyOwner public {\r\n        payable(msg.sender).transfer(amount);\r\n    }\r\n\r\n    /**\r\n    * @dev Changes the base URI if we want to move things in the future (Callable by owner only)\r\n    */\r\n    function changeBaseURI(string memory URI) onlyOwner public {\r\n       setBaseURI(URI);\r\n    }\r\n    /**\r\n    * @dev Changes max supply based on future drop dates (owner only)\r\n    */\r\n    function changeMaxSupply(uint256 supply) onlyOwner public {\r\n        MAX_SUPPLY = supply;\r\n    }\r\n\r\n    function updateMintPrice(uint256 price) onlyOwner public {\r\n        BASE_RATE = price;\r\n    }\r\n\r\n    function walletOfOwner(address _owner)\r\n        public\r\n        view\r\n        returns (uint256[] memory)\r\n    {\r\n        uint256 ownerTokenCount = balanceOf(_owner);\r\n        uint256[] memory tokenIds = new uint256[](ownerTokenCount);\r\n        for (uint256 i; i < ownerTokenCount; i++) {\r\n            tokenIds[i] = tokenOfOwnerByIndex(_owner, i);\r\n        }\r\n        return tokenIds;\r\n    }\r\n\r\n    // internal\r\n    function _baseURI() internal view virtual override returns (string memory) {\r\n        return baseURI;\r\n    }\r\n\r\n    function tokenURI(uint256 tokenId)\r\n        public\r\n        view\r\n        virtual\r\n        override\r\n        returns (string memory)\r\n    {\r\n        require(\r\n        _exists(tokenId),\r\n        \"ERC721Metadata: URI query for nonexistent token\"\r\n        );\r\n\r\n        string memory currentBaseURI = _baseURI();\r\n        return bytes(currentBaseURI).length > 0\r\n            ? string(abi.encodePacked(currentBaseURI, tokenId.toString(), metaDataExt))\r\n            : \"\";\r\n    }\r\n\r\n    //only owner\r\n    function setCost(uint256 _newCost) public onlyOwner {\r\n        cost = _newCost;\r\n    }\r\n\r\n    function setmaxMintAmount(uint256 _newmaxMintAmount) onlyOwner public {\r\n        maxMintAmount = _newmaxMintAmount;\r\n    }\r\n\r\n    function setBaseURI(string memory _newBaseURI) onlyOwner public {\r\n        baseURI = _newBaseURI;\r\n    }\r\n\r\n    function whitelistUser(address _user) onlyOwner public {\r\n        whitelisted[_user] = true;\r\n    }\r\n\r\n    function removeWhitelistUser(address _user) onlyOwner public {\r\n        whitelisted[_user] = false;\r\n    }\r\n\r\n}",
  "sourcePath": "D:\\projects\\github\\buffalo-nft-contract\\contracts\\Buffalos.sol",
  "compiler": {
    "name": "solc",
    "version": "0.8.0+commit.c7dfd78e.Emscripten.clang"
  },
  "schemaVersion": "3.4.3",
  "updatedAt": "2021-12-06T07:43:33.058Z",
  "networkType": "ethereum",
  "devdoc": {
    "kind": "dev",
    "methods": {
      "approve(address,uint256)": {
        "details": "See {IERC721-approve}."
      },
      "balanceOf(address)": {
        "details": "See {IERC721-balanceOf}."
      },
      "canMint(bool)": {
        "details": "Withdraw ether from this contract (Callable by owner only)"
      },
      "changeBaseURI(string)": {
        "details": "Changes the base URI if we want to move things in the future (Callable by owner only)"
      },
      "changeMaxSupply(uint256)": {
        "details": "Changes max supply based on future drop dates (owner only)"
      },
      "getApproved(uint256)": {
        "details": "See {IERC721-getApproved}."
      },
      "isApprovedForAll(address,address)": {
        "details": "See {IERC721-isApprovedForAll}."
      },
      "mintBuffalo(uint256)": {
        "details": "Mints yourself a Buffalo. Or more."
      },
      "name()": {
        "details": "See {IERC721Metadata-name}."
      },
      "owner()": {
        "details": "Returns the address of the current owner."
      },
      "ownerOf(uint256)": {
        "details": "See {IERC721-ownerOf}."
      },
      "renounceOwnership()": {
        "details": "Leaves the contract without owner. It will not be possible to call `onlyOwner` functions anymore. Can only be called by the current owner. NOTE: Renouncing ownership will leave the contract without an owner, thereby removing any functionality that is only available to the owner."
      },
      "safeTransferFrom(address,address,uint256)": {
        "details": "See {IERC721-safeTransferFrom}."
      },
      "safeTransferFrom(address,address,uint256,bytes)": {
        "details": "See {IERC721-safeTransferFrom}."
      },
      "setApprovalForAll(address,bool)": {
        "details": "See {IERC721-setApprovalForAll}."
      },
      "supportsInterface(bytes4)": {
        "details": "See {IERC165-supportsInterface}."
      },
      "symbol()": {
        "details": "See {IERC721Metadata-symbol}."
      },
      "tokenByIndex(uint256)": {
        "details": "See {IERC721Enumerable-tokenByIndex}."
      },
      "tokenOfOwnerByIndex(address,uint256)": {
        "details": "See {IERC721Enumerable-tokenOfOwnerByIndex}."
      },
      "tokenURI(uint256)": {
        "details": "See {IERC721Metadata-tokenURI}."
      },
      "totalSupply()": {
        "details": "See {IERC721Enumerable-totalSupply}."
      },
      "transferFrom(address,address,uint256)": {
        "details": "See {IERC721-transferFrom}."
      },
      "transferOwnership(address)": {
        "details": "Transfers ownership of the contract to a new account (`newOwner`). Can only be called by the current owner."
      }
    },
    "version": 1
  },
  "userdoc": {
    "kind": "user",
    "methods": {},
    "version": 1
  }
}