{
  "contractName": "Buffalos",
  "abi": [
    {
      "inputs": [
        {
          "internalType": "string",
          "name": "name",
          "type": "string"
        },
        {
          "internalType": "string",
          "name": "symbol",
          "type": "string"
        },
        {
          "internalType": "string",
          "name": "URI",
          "type": "string"
        },
        {
          "internalType": "uint256",
          "name": "initialSupply",
          "type": "uint256"
        },
        {
          "internalType": "uint256",
          "name": "startDate",
          "type": "uint256"
        },
        {
          "internalType": "address",
          "name": "_artist",
          "type": "address"
        },
        {
          "internalType": "address",
          "name": "_txFeeToken",
          "type": "address"
        },
        {
          "internalType": "uint256",
          "name": "_txFeeAmount",
          "type": "uint256"
        }
      ],
      "stateMutability": "nonpayable",
      "type": "constructor"
    },
    {
      "anonymous": false,
      "inputs": [
        {
          "indexed": true,
          "internalType": "address",
          "name": "owner",
          "type": "address"
        },
        {
          "indexed": true,
          "internalType": "address",
          "name": "approved",
          "type": "address"
        },
        {
          "indexed": true,
          "internalType": "uint256",
          "name": "tokenId",
          "type": "uint256"
        }
      ],
      "name": "Approval",
      "type": "event"
    },
    {
      "anonymous": false,
      "inputs": [
        {
          "indexed": true,
          "internalType": "address",
          "name": "owner",
          "type": "address"
        },
        {
          "indexed": true,
          "internalType": "address",
          "name": "operator",
          "type": "address"
        },
        {
          "indexed": false,
          "internalType": "bool",
          "name": "approved",
          "type": "bool"
        }
      ],
      "name": "ApprovalForAll",
      "type": "event"
    },
    {
      "anonymous": false,
      "inputs": [
        {
          "indexed": false,
          "internalType": "address",
          "name": "buyer",
          "type": "address"
        },
        {
          "indexed": false,
          "internalType": "uint256",
          "name": "amount",
          "type": "uint256"
        }
      ],
      "name": "BuffaloBought",
      "type": "event"
    },
    {
      "anonymous": false,
      "inputs": [
        {
          "indexed": true,
          "internalType": "address",
          "name": "previousOwner",
          "type": "address"
        },
        {
          "indexed": true,
          "internalType": "address",
          "name": "newOwner",
          "type": "address"
        }
      ],
      "name": "OwnershipTransferred",
      "type": "event"
    },
    {
      "anonymous": false,
      "inputs": [
        {
          "indexed": true,
          "internalType": "address",
          "name": "from",
          "type": "address"
        },
        {
          "indexed": true,
          "internalType": "address",
          "name": "to",
          "type": "address"
        },
        {
          "indexed": true,
          "internalType": "uint256",
          "name": "tokenId",
          "type": "uint256"
        }
      ],
      "name": "Transfer",
      "type": "event"
    },
    {
      "inputs": [],
      "name": "BASE_RATE",
      "outputs": [
        {
          "internalType": "uint256",
          "name": "",
          "type": "uint256"
        }
      ],
      "stateMutability": "view",
      "type": "function",
      "constant": true
    },
    {
      "inputs": [],
      "name": "MAX_SUPPLY",
      "outputs": [
        {
          "internalType": "uint256",
          "name": "",
          "type": "uint256"
        }
      ],
      "stateMutability": "view",
      "type": "function",
      "constant": true
    },
    {
      "inputs": [
        {
          "internalType": "address",
          "name": "to",
          "type": "address"
        },
        {
          "internalType": "uint256",
          "name": "tokenId",
          "type": "uint256"
        }
      ],
      "name": "approve",
      "outputs": [],
      "stateMutability": "nonpayable",
      "type": "function"
    },
    {
      "inputs": [],
      "name": "artist",
      "outputs": [
        {
          "internalType": "address",
          "name": "",
          "type": "address"
        }
      ],
      "stateMutability": "view",
      "type": "function",
      "constant": true
    },
    {
      "inputs": [
        {
          "internalType": "address",
          "name": "owner",
          "type": "address"
        }
      ],
      "name": "balanceOf",
      "outputs": [
        {
          "internalType": "uint256",
          "name": "",
          "type": "uint256"
        }
      ],
      "stateMutability": "view",
      "type": "function",
      "constant": true
    },
    {
      "inputs": [],
      "name": "baseURI",
      "outputs": [
        {
          "internalType": "string",
          "name": "",
          "type": "string"
        }
      ],
      "stateMutability": "view",
      "type": "function",
      "constant": true
    },
    {
      "inputs": [],
      "name": "blockStart",
      "outputs": [
        {
          "internalType": "uint256",
          "name": "",
          "type": "uint256"
        }
      ],
      "stateMutability": "view",
      "type": "function",
      "constant": true
    },
    {
      "inputs": [],
      "name": "cost",
      "outputs": [
        {
          "internalType": "uint256",
          "name": "",
          "type": "uint256"
        }
      ],
      "stateMutability": "view",
      "type": "function",
      "constant": true
    },
    {
      "inputs": [
        {
          "internalType": "address",
          "name": "",
          "type": "address"
        }
      ],
      "name": "excludedList",
      "outputs": [
        {
          "internalType": "bool",
          "name": "",
          "type": "bool"
        }
      ],
      "stateMutability": "view",
      "type": "function",
      "constant": true
    },
    {
      "inputs": [
        {
          "internalType": "uint256",
          "name": "tokenId",
          "type": "uint256"
        }
      ],
      "name": "getApproved",
      "outputs": [
        {
          "internalType": "address",
          "name": "",
          "type": "address"
        }
      ],
      "stateMutability": "view",
      "type": "function",
      "constant": true
    },
    {
      "inputs": [
        {
          "internalType": "address",
          "name": "owner",
          "type": "address"
        },
        {
          "internalType": "address",
          "name": "operator",
          "type": "address"
        }
      ],
      "name": "isApprovedForAll",
      "outputs": [
        {
          "internalType": "bool",
          "name": "",
          "type": "bool"
        }
      ],
      "stateMutability": "view",
      "type": "function",
      "constant": true
    },
    {
      "inputs": [],
      "name": "maxMintAmount",
      "outputs": [
        {
          "internalType": "uint256",
          "name": "",
          "type": "uint256"
        }
      ],
      "stateMutability": "view",
      "type": "function",
      "constant": true
    },
    {
      "inputs": [],
      "name": "metaDataExt",
      "outputs": [
        {
          "internalType": "string",
          "name": "",
          "type": "string"
        }
      ],
      "stateMutability": "view",
      "type": "function",
      "constant": true
    },
    {
      "inputs": [],
      "name": "mintable",
      "outputs": [
        {
          "internalType": "bool",
          "name": "",
          "type": "bool"
        }
      ],
      "stateMutability": "view",
      "type": "function",
      "constant": true
    },
    {
      "inputs": [],
      "name": "name",
      "outputs": [
        {
          "internalType": "string",
          "name": "",
          "type": "string"
        }
      ],
      "stateMutability": "view",
      "type": "function",
      "constant": true
    },
    {
      "inputs": [],
      "name": "owner",
      "outputs": [
        {
          "internalType": "address",
          "name": "",
          "type": "address"
        }
      ],
      "stateMutability": "view",
      "type": "function",
      "constant": true
    },
    {
      "inputs": [
        {
          "internalType": "uint256",
          "name": "tokenId",
          "type": "uint256"
        }
      ],
      "name": "ownerOf",
      "outputs": [
        {
          "internalType": "address",
          "name": "",
          "type": "address"
        }
      ],
      "stateMutability": "view",
      "type": "function",
      "constant": true
    },
    {
      "inputs": [],
      "name": "renounceOwnership",
      "outputs": [],
      "stateMutability": "nonpayable",
      "type": "function"
    },
    {
      "inputs": [
        {
          "internalType": "address",
          "name": "from",
          "type": "address"
        },
        {
          "internalType": "address",
          "name": "to",
          "type": "address"
        },
        {
          "internalType": "uint256",
          "name": "tokenId",
          "type": "uint256"
        }
      ],
      "name": "safeTransferFrom",
      "outputs": [],
      "stateMutability": "nonpayable",
      "type": "function"
    },
    {
      "inputs": [
        {
          "internalType": "address",
          "name": "from",
          "type": "address"
        },
        {
          "internalType": "address",
          "name": "to",
          "type": "address"
        },
        {
          "internalType": "uint256",
          "name": "tokenId",
          "type": "uint256"
        },
        {
          "internalType": "bytes",
          "name": "_data",
          "type": "bytes"
        }
      ],
      "name": "safeTransferFrom",
      "outputs": [],
      "stateMutability": "nonpayable",
      "type": "function"
    },
    {
      "inputs": [
        {
          "internalType": "address",
          "name": "operator",
          "type": "address"
        },
        {
          "internalType": "bool",
          "name": "approved",
          "type": "bool"
        }
      ],
      "name": "setApprovalForAll",
      "outputs": [],
      "stateMutability": "nonpayable",
      "type": "function"
    },
    {
      "inputs": [
        {
          "internalType": "bytes4",
          "name": "interfaceId",
          "type": "bytes4"
        }
      ],
      "name": "supportsInterface",
      "outputs": [
        {
          "internalType": "bool",
          "name": "",
          "type": "bool"
        }
      ],
      "stateMutability": "view",
      "type": "function",
      "constant": true
    },
    {
      "inputs": [],
      "name": "symbol",
      "outputs": [
        {
          "internalType": "string",
          "name": "",
          "type": "string"
        }
      ],
      "stateMutability": "view",
      "type": "function",
      "constant": true
    },
    {
      "inputs": [
        {
          "internalType": "uint256",
          "name": "index",
          "type": "uint256"
        }
      ],
      "name": "tokenByIndex",
      "outputs": [
        {
          "internalType": "uint256",
          "name": "",
          "type": "uint256"
        }
      ],
      "stateMutability": "view",
      "type": "function",
      "constant": true
    },
    {
      "inputs": [
        {
          "internalType": "address",
          "name": "owner",
          "type": "address"
        },
        {
          "internalType": "uint256",
          "name": "index",
          "type": "uint256"
        }
      ],
      "name": "tokenOfOwnerByIndex",
      "outputs": [
        {
          "internalType": "uint256",
          "name": "",
          "type": "uint256"
        }
      ],
      "stateMutability": "view",
      "type": "function",
      "constant": true
    },
    {
      "inputs": [],
      "name": "totalSupply",
      "outputs": [
        {
          "internalType": "uint256",
          "name": "",
          "type": "uint256"
        }
      ],
      "stateMutability": "view",
      "type": "function",
      "constant": true
    },
    {
      "inputs": [
        {
          "internalType": "address",
          "name": "from",
          "type": "address"
        },
        {
          "internalType": "address",
          "name": "to",
          "type": "address"
        },
        {
          "internalType": "uint256",
          "name": "tokenId",
          "type": "uint256"
        }
      ],
      "name": "transferFrom",
      "outputs": [],
      "stateMutability": "nonpayable",
      "type": "function"
    },
    {
      "inputs": [
        {
          "internalType": "address",
          "name": "newOwner",
          "type": "address"
        }
      ],
      "name": "transferOwnership",
      "outputs": [],
      "stateMutability": "nonpayable",
      "type": "function"
    },
    {
      "inputs": [],
      "name": "txFeeToken",
      "outputs": [
        {
          "internalType": "address",
          "name": "",
          "type": "address"
        }
      ],
      "stateMutability": "view",
      "type": "function",
      "constant": true
    },
    {
      "inputs": [],
      "name": "uri",
      "outputs": [
        {
          "internalType": "string",
          "name": "",
          "type": "string"
        }
      ],
      "stateMutability": "view",
      "type": "function",
      "constant": true
    },
    {
      "inputs": [
        {
          "internalType": "address",
          "name": "",
          "type": "address"
        }
      ],
      "name": "whitelisted",
      "outputs": [
        {
          "internalType": "bool",
          "name": "",
          "type": "bool"
        }
      ],
      "stateMutability": "view",
      "type": "function",
      "constant": true
    },
    {
      "inputs": [
        {
          "internalType": "uint256",
          "name": "amount",
          "type": "uint256"
        }
      ],
      "name": "getNFTPrice",
      "outputs": [
        {
          "internalType": "uint256",
          "name": "",
          "type": "uint256"
        }
      ],
      "stateMutability": "view",
      "type": "function",
      "constant": true
    },
    {
      "inputs": [
        {
          "internalType": "address",
          "name": "excluded",
          "type": "address"
        },
        {
          "internalType": "bool",
          "name": "status",
          "type": "bool"
        }
      ],
      "name": "setExcluded",
      "outputs": [],
      "stateMutability": "nonpayable",
      "type": "function"
    },
    {
      "inputs": [
        {
          "internalType": "uint256",
          "name": "startDate",
          "type": "uint256"
        }
      ],
      "name": "setBlockStart",
      "outputs": [],
      "stateMutability": "nonpayable",
      "type": "function"
    },
    {
      "inputs": [
        {
          "internalType": "uint256",
          "name": "startDate",
          "type": "uint256"
        }
      ],
      "name": "updateBlockStart",
      "outputs": [],
      "stateMutability": "nonpayable",
      "type": "function"
    },
    {
      "inputs": [],
      "name": "getBlockStart",
      "outputs": [
        {
          "internalType": "uint256",
          "name": "",
          "type": "uint256"
        }
      ],
      "stateMutability": "view",
      "type": "function",
      "constant": true
    },
    {
      "inputs": [],
      "name": "getMaxSupply",
      "outputs": [
        {
          "internalType": "uint256",
          "name": "",
          "type": "uint256"
        }
      ],
      "stateMutability": "view",
      "type": "function",
      "constant": true
    },
    {
      "inputs": [],
      "name": "ApproveContract",
      "outputs": [],
      "stateMutability": "nonpayable",
      "type": "function"
    },
    {
      "inputs": [
        {
          "internalType": "uint256",
          "name": "numberofBuffalos",
          "type": "uint256"
        }
      ],
      "name": "mintBuffalo",
      "outputs": [],
      "stateMutability": "payable",
      "type": "function",
      "payable": true
    },
    {
      "inputs": [
        {
          "internalType": "bool",
          "name": "mintFlag",
          "type": "bool"
        }
      ],
      "name": "canMint",
      "outputs": [],
      "stateMutability": "nonpayable",
      "type": "function"
    },
    {
      "inputs": [
        {
          "internalType": "uint256",
          "name": "amount",
          "type": "uint256"
        }
      ],
      "name": "withdraw",
      "outputs": [],
      "stateMutability": "nonpayable",
      "type": "function"
    },
    {
      "inputs": [
        {
          "internalType": "string",
          "name": "URI",
          "type": "string"
        }
      ],
      "name": "changeBaseURI",
      "outputs": [],
      "stateMutability": "nonpayable",
      "type": "function"
    },
    {
      "inputs": [
        {
          "internalType": "uint256",
          "name": "supply",
          "type": "uint256"
        }
      ],
      "name": "changeMaxSupply",
      "outputs": [],
      "stateMutability": "nonpayable",
      "type": "function"
    },
    {
      "inputs": [
        {
          "internalType": "uint256",
          "name": "price",
          "type": "uint256"
        }
      ],
      "name": "updateMintPrice",
      "outputs": [],
      "stateMutability": "nonpayable",
      "type": "function"
    },
    {
      "inputs": [
        {
          "internalType": "address",
          "name": "_owner",
          "type": "address"
        }
      ],
      "name": "walletOfOwner",
      "outputs": [
        {
          "internalType": "uint256[]",
          "name": "",
          "type": "uint256[]"
        }
      ],
      "stateMutability": "view",
      "type": "function",
      "constant": true
    },
    {
      "inputs": [
        {
          "internalType": "uint256",
          "name": "tokenId",
          "type": "uint256"
        }
      ],
      "name": "tokenURI",
      "outputs": [
        {
          "internalType": "string",
          "name": "",
          "type": "string"
        }
      ],
      "stateMutability": "view",
      "type": "function",
      "constant": true
    },
    {
      "inputs": [
        {
          "internalType": "uint256",
          "name": "_newCost",
          "type": "uint256"
        }
      ],
      "name": "setCost",
      "outputs": [],
      "stateMutability": "nonpayable",
      "type": "function"
    },
    {
      "inputs": [
        {
          "internalType": "uint256",
          "name": "_newmaxMintAmount",
          "type": "uint256"
        }
      ],
      "name": "setmaxMintAmount",
      "outputs": [],
      "stateMutability": "nonpayable",
      "type": "function"
    },
    {
      "inputs": [
        {
          "internalType": "string",
          "name": "_newBaseURI",
          "type": "string"
        }
      ],
      "name": "setBaseURI",
      "outputs": [],
      "stateMutability": "nonpayable",
      "type": "function"
    },
    {
      "inputs": [
        {
          "internalType": "address",
          "name": "_user",
          "type": "address"
        }
      ],
      "name": "whitelistUser",
      "outputs": [],
      "stateMutability": "nonpayable",
      "type": "function"
    },
    {
      "inputs": [
        {
          "internalType": "address",
          "name": "_user",
          "type": "address"
        }
      ],
      "name": "removeWhitelistUser",
      "outputs": [],
      "stateMutability": "nonpayable",
      "type": "function"
    }
  ],
  "bytecode": "0x6080604052670de0b6b3a7640000600f556040518060400160405280600581526020017f2e6a736f6e000000000000000000000000000000000000000000000000000000815250601490805190602001906200005d92919062000383565b506001601560006101000a81548160ff0219169083151502179055503480156200008657600080fd5b5060405162005ab238038062005ab28339818101604052810190620000ac9190620004d3565b87878160009080519060200190620000c692919062000383565b508060019080519060200190620000df92919062000383565b50505062000102620000f6620001d660201b60201c565b620001de60201b60201c565b6200011386620002a460201b60201c565b62000124846200034f60201b60201c565b82601060006101000a81548173ffffffffffffffffffffffffffffffffffffffff021916908373ffffffffffffffffffffffffffffffffffffffff16021790555081601160006101000a81548173ffffffffffffffffffffffffffffffffffffffff021916908373ffffffffffffffffffffffffffffffffffffffff16021790555066038d7ea4c6800081620001bb9190620006bd565b600f8190555084600c81905550505050505050505062000889565b600033905090565b6000600a60009054906101000a900473ffffffffffffffffffffffffffffffffffffffff16905081600a60006101000a81548173ffffffffffffffffffffffffffffffffffffffff021916908373ffffffffffffffffffffffffffffffffffffffff1602179055508173ffffffffffffffffffffffffffffffffffffffff168173ffffffffffffffffffffffffffffffffffffffff167f8be0079c531659141344cd1fd0a4f28419497f9722a3daafe3b4186f6b6457e060405160405180910390a35050565b620002b4620001d660201b60201c565b73ffffffffffffffffffffffffffffffffffffffff16620002da6200035960201b60201c565b73ffffffffffffffffffffffffffffffffffffffff161462000333576040517f08c379a00000000000000000000000000000000000000000000000000000000081526004016200032a9062000623565b60405180910390fd5b80601290805190602001906200034b92919062000383565b5050565b80600b8190555050565b6000600a60009054906101000a900473ffffffffffffffffffffffffffffffffffffffff16905090565b828054620003919062000792565b90600052602060002090601f016020900481019282620003b5576000855562000401565b82601f10620003d057805160ff191683800117855562000401565b8280016001018555821562000401579182015b8281111562000400578251825591602001919060010190620003e3565b5b50905062000410919062000414565b5090565b5b808211156200042f57600081600090555060010162000415565b5090565b60006200044a620004448462000679565b62000645565b9050828152602081018484840111156200046357600080fd5b620004708482856200075c565b509392505050565b600081519050620004898162000855565b92915050565b600082601f830112620004a157600080fd5b8151620004b384826020860162000433565b91505092915050565b600081519050620004cd816200086f565b92915050565b600080600080600080600080610100898b031215620004f157600080fd5b600089015167ffffffffffffffff8111156200050c57600080fd5b6200051a8b828c016200048f565b985050602089015167ffffffffffffffff8111156200053857600080fd5b620005468b828c016200048f565b975050604089015167ffffffffffffffff8111156200056457600080fd5b620005728b828c016200048f565b9650506060620005858b828c01620004bc565b9550506080620005988b828c01620004bc565b94505060a0620005ab8b828c0162000478565b93505060c0620005be8b828c0162000478565b92505060e0620005d18b828c01620004bc565b9150509295985092959890939650565b6000620005f0602083620006ac565b91507f4f776e61626c653a2063616c6c6572206973206e6f7420746865206f776e65726000830152602082019050919050565b600060208201905081810360008301526200063e81620005e1565b9050919050565b6000604051905081810181811067ffffffffffffffff821117156200066f576200066e62000826565b5b8060405250919050565b600067ffffffffffffffff82111562000697576200069662000826565b5b601f19601f8301169050602081019050919050565b600082825260208201905092915050565b6000620006ca8262000752565b9150620006d78362000752565b9250817fffffffffffffffffffffffffffffffffffffffffffffffffffffffffffffffff0483118215151615620007135762000712620007c8565b5b828202905092915050565b60006200072b8262000732565b9050919050565b600073ffffffffffffffffffffffffffffffffffffffff82169050919050565b6000819050919050565b60005b838110156200077c5780820151818401526020810190506200075f565b838111156200078c576000848401525b50505050565b60006002820490506001821680620007ab57607f821691505b60208210811415620007c257620007c1620007f7565b5b50919050565b7f4e487b7100000000000000000000000000000000000000000000000000000000600052601160045260246000fd5b7f4e487b7100000000000000000000000000000000000000000000000000000000600052602260045260246000fd5b7f4e487b7100000000000000000000000000000000000000000000000000000000600052604160045260246000fd5b62000860816200071e565b81146200086c57600080fd5b50565b6200087a8162000752565b81146200088657600080fd5b50565b61521980620008996000396000f3fe6080604052600436106102e35760003560e01c80634c0f38c2116101905780638da5cb5b116100dc578063b88d4fde11610095578063e2db1a301161006f578063e2db1a3014610b3a578063e985e9c514610b63578063eac989f814610ba0578063f2fde38b14610bcb576102e3565b8063b88d4fde14610a97578063c87b56dd14610ac0578063d936547e14610afd576102e3565b80638da5cb5b146109a857806392976179146109d357806392dd3de514610a1057806395d89b4114610a27578063a22cb46514610a52578063b2ca781414610a7b576102e3565b80636b870e4411610149578063715018a611610123578063715018a61461091257806377c567a7146109295780637b2feaaa146109545780637f00c7a61461097f576102e3565b80636b870e441461087f5780636c0360eb146108aa57806370a08231146108d5576102e3565b80634c0f38c21461074b5780634e80f0f1146107765780634f6ccce71461079f57806355f804b3146107dc5780635600d2fa146108055780636352211e14610842576102e3565b80632f745c591161024f57806342842e0e1161020857806344a0d68a116101e257806344a0d68a146106a557806346e8597a146106ce5780634a4c560d146106f75780634bf365df14610720576102e3565b806342842e0e14610614578063438b63001461063d57806343bc16121461067a576102e3565b80632f745c591461050657806330cc7ae01461054357806332cb6b0c1461056c57806339a0c6f914610597578063404c7cdd146105c057806341910f90146105e9576102e3565b806318160ddd116102a157806318160ddd1461040a578063239c70ae1461043557806323b872dd1461046057806325ae270b146104895780632836be24146104b45780632e1a7d4d146104dd576102e3565b8062728e46146102e857806301ffc9a71461031157806306fdde031461034e578063081812fc14610379578063095ea7b3146103b657806313faede6146103df575b600080fd5b3480156102f457600080fd5b5061030f600480360381019061030a9190613d33565b610bf4565b005b34801561031d57600080fd5b5061033860048036038101906103339190613ca0565b610c8c565b6040516103459190614997565b60405180910390f35b34801561035a57600080fd5b50610363610d06565b60405161037091906149b2565b60405180910390f35b34801561038557600080fd5b506103a0600480360381019061039b9190613d33565b610d98565b6040516103ad9190614885565b60405180910390f35b3480156103c257600080fd5b506103dd60048036038101906103d89190613c12565b610e1d565b005b3480156103eb57600080fd5b506103f4610f35565b6040516104019190614cf4565b60405180910390f35b34801561041657600080fd5b5061041f610f3b565b60405161042c9190614cf4565b60405180910390f35b34801561044157600080fd5b5061044a610f48565b6040516104579190614cf4565b60405180910390f35b34801561046c57600080fd5b5061048760048036038101906104829190613b0c565b610f4e565b005b34801561049557600080fd5b5061049e610fae565b6040516104ab9190614cf4565b60405180910390f35b3480156104c057600080fd5b506104db60048036038101906104d69190613bd6565b610fb8565b005b3480156104e957600080fd5b5061050460048036038101906104ff9190613d33565b6110a3565b005b34801561051257600080fd5b5061052d60048036038101906105289190613c12565b611169565b60405161053a9190614cf4565b60405180910390f35b34801561054f57600080fd5b5061056a60048036038101906105659190613aa7565b61120e565b005b34801561057857600080fd5b506105816112e5565b60405161058e9190614cf4565b60405180910390f35b3480156105a357600080fd5b506105be60048036038101906105b99190613cf2565b6112eb565b005b3480156105cc57600080fd5b506105e760048036038101906105e29190613d33565b611373565b005b3480156105f557600080fd5b506105fe6113f9565b60405161060b9190614cf4565b60405180910390f35b34801561062057600080fd5b5061063b60048036038101906106369190613b0c565b6113ff565b005b34801561064957600080fd5b50610664600480360381019061065f9190613aa7565b61141f565b6040516106719190614975565b60405180910390f35b34801561068657600080fd5b5061068f611519565b60405161069c9190614885565b60405180910390f35b3480156106b157600080fd5b506106cc60048036038101906106c79190613d33565b61153f565b005b3480156106da57600080fd5b506106f560048036038101906106f09190613d33565b6115c5565b005b34801561070357600080fd5b5061071e60048036038101906107199190613aa7565b611690565b005b34801561072c57600080fd5b50610735611767565b6040516107429190614997565b60405180910390f35b34801561075757600080fd5b5061076061177a565b60405161076d9190614cf4565b60405180910390f35b34801561078257600080fd5b5061079d60048036038101906107989190613c4e565b611784565b005b3480156107ab57600080fd5b506107c660048036038101906107c19190613d33565b61181d565b6040516107d39190614cf4565b60405180910390f35b3480156107e857600080fd5b5061080360048036038101906107fe9190613cf2565b6118b4565b005b34801561081157600080fd5b5061082c60048036038101906108279190613aa7565b61194a565b6040516108399190614997565b60405180910390f35b34801561084e57600080fd5b5061086960048036038101906108649190613d33565b61196a565b6040516108769190614885565b60405180910390f35b34801561088b57600080fd5b50610894611a1c565b6040516108a191906149b2565b60405180910390f35b3480156108b657600080fd5b506108bf611aaa565b6040516108cc91906149b2565b60405180910390f35b3480156108e157600080fd5b506108fc60048036038101906108f79190613aa7565b611b38565b6040516109099190614cf4565b60405180910390f35b34801561091e57600080fd5b50610927611bf0565b005b34801561093557600080fd5b5061093e611c78565b60405161094b9190614885565b60405180910390f35b34801561096057600080fd5b50610969611c9e565b6040516109769190614cf4565b60405180910390f35b34801561098b57600080fd5b506109a660048036038101906109a19190613d33565b611ca4565b005b3480156109b457600080fd5b506109bd611d2a565b6040516109ca9190614885565b60405180910390f35b3480156109df57600080fd5b506109fa60048036038101906109f59190613d33565b611d54565b604051610a079190614cf4565b60405180910390f35b348015610a1c57600080fd5b50610a25611d72565b005b348015610a3357600080fd5b50610a3c611e33565b604051610a4991906149b2565b60405180910390f35b348015610a5e57600080fd5b50610a796004803603810190610a749190613bd6565b611ec5565b005b610a956004803603810190610a909190613d33565b612046565b005b348015610aa357600080fd5b50610abe6004803603810190610ab99190613b5b565b61238f565b005b348015610acc57600080fd5b50610ae76004803603810190610ae29190613d33565b6123f1565b604051610af491906149b2565b60405180910390f35b348015610b0957600080fd5b50610b246004803603810190610b1f9190613aa7565b61249b565b604051610b319190614997565b60405180910390f35b348015610b4657600080fd5b50610b616004803603810190610b5c9190613d33565b6124bb565b005b348015610b6f57600080fd5b50610b8a6004803603810190610b859190613ad0565b6124c5565b604051610b979190614997565b60405180910390f35b348015610bac57600080fd5b50610bb5612559565b604051610bc291906149b2565b60405180910390f35b348015610bd757600080fd5b50610bf26004803603810190610bed9190613aa7565b6125e7565b005b610bfc6126df565b73ffffffffffffffffffffffffffffffffffffffff16610c1a611d2a565b73ffffffffffffffffffffffffffffffffffffffff1614610c70576040517f08c379a0000000000000000000000000000000000000000000000000000000008152600401610c6790614bd4565b60405180910390fd5b66038d7ea4c6800081610c839190614eb8565b600f8190555050565b60007f780e9d63000000000000000000000000000000000000000000000000000000007bffffffffffffffffffffffffffffffffffffffffffffffffffffffff1916827bffffffffffffffffffffffffffffffffffffffffffffffffffffffff19161480610cff5750610cfe826126e7565b5b9050919050565b606060008054610d159061500e565b80601f0160208091040260200160405190810160405280929190818152602001828054610d419061500e565b8015610d8e5780601f10610d6357610100808354040283529160200191610d8e565b820191906000526020600020905b815481529060010190602001808311610d7157829003601f168201915b5050505050905090565b6000610da3826127c9565b610de2576040517f08c379a0000000000000000000000000000000000000000000000000000000008152600401610dd990614bb4565b60405180910390fd5b6004600083815260200190815260200160002060009054906101000a900473ffffffffffffffffffffffffffffffffffffffff169050919050565b6000610e288261196a565b90508073ffffffffffffffffffffffffffffffffffffffff168373ffffffffffffffffffffffffffffffffffffffff161415610e99576040517f08c379a0000000000000000000000000000000000000000000000000000000008152600401610e9090614c34565b60405180910390fd5b8073ffffffffffffffffffffffffffffffffffffffff16610eb86126df565b73ffffffffffffffffffffffffffffffffffffffff161480610ee75750610ee681610ee16126df565b6124c5565b5b610f26576040517f08c379a0000000000000000000000000000000000000000000000000000000008152600401610f1d90614b34565b60405180910390fd5b610f308383612835565b505050565b600d5481565b6000600880549050905090565b600e5481565b610f5f610f596126df565b826128ee565b610f9e576040517f08c379a0000000000000000000000000000000000000000000000000000000008152600401610f9590614c94565b60405180910390fd5b610fa98383836129cc565b505050565b6000600b54905090565b601060009054906101000a900473ffffffffffffffffffffffffffffffffffffffff1673ffffffffffffffffffffffffffffffffffffffff163373ffffffffffffffffffffffffffffffffffffffff1614611048576040517f08c379a000000000000000000000000000000000000000000000000000000000815260040161103f90614a94565b60405180910390fd5b80601760008473ffffffffffffffffffffffffffffffffffffffff1673ffffffffffffffffffffffffffffffffffffffff16815260200190815260200160002060006101000a81548160ff0219169083151502179055505050565b6110ab6126df565b73ffffffffffffffffffffffffffffffffffffffff166110c9611d2a565b73ffffffffffffffffffffffffffffffffffffffff161461111f576040517f08c379a000000000000000000000000000000000000000000000000000000000815260040161111690614bd4565b60405180910390fd5b3373ffffffffffffffffffffffffffffffffffffffff166108fc829081150290604051600060405180830381858888f19350505050158015611165573d6000803e3d6000fd5b5050565b600061117483611b38565b82106111b5576040517f08c379a00000000000000000000000000000000000000000000000000000000081526004016111ac906149f4565b60405180910390fd5b600660008473ffffffffffffffffffffffffffffffffffffffff1673ffffffffffffffffffffffffffffffffffffffff168152602001908152602001600020600083815260200190815260200160002054905092915050565b6112166126df565b73ffffffffffffffffffffffffffffffffffffffff16611234611d2a565b73ffffffffffffffffffffffffffffffffffffffff161461128a576040517f08c379a000000000000000000000000000000000000000000000000000000000815260040161128190614bd4565b60405180910390fd5b6000601660008373ffffffffffffffffffffffffffffffffffffffff1673ffffffffffffffffffffffffffffffffffffffff16815260200190815260200160002060006101000a81548160ff02191690831515021790555050565b600c5481565b6112f36126df565b73ffffffffffffffffffffffffffffffffffffffff16611311611d2a565b73ffffffffffffffffffffffffffffffffffffffff1614611367576040517f08c379a000000000000000000000000000000000000000000000000000000000815260040161135e90614bd4565b60405180910390fd5b611370816118b4565b50565b61137b6126df565b73ffffffffffffffffffffffffffffffffffffffff16611399611d2a565b73ffffffffffffffffffffffffffffffffffffffff16146113ef576040517f08c379a00000000000000000000000000000000000000000000000000000000081526004016113e690614bd4565b60405180910390fd5b80600c8190555050565b600f5481565b61141a8383836040518060200160405280600081525061238f565b505050565b6060600061142c83611b38565b905060008167ffffffffffffffff811115611470577f4e487b7100000000000000000000000000000000000000000000000000000000600052604160045260246000fd5b60405190808252806020026020018201604052801561149e5781602001602082028036833780820191505090505b50905060005b8281101561150e576114b68582611169565b8282815181106114ef577f4e487b7100000000000000000000000000000000000000000000000000000000600052603260045260246000fd5b602002602001018181525050808061150690615040565b9150506114a4565b508092505050919050565b601060009054906101000a900473ffffffffffffffffffffffffffffffffffffffff1681565b6115476126df565b73ffffffffffffffffffffffffffffffffffffffff16611565611d2a565b73ffffffffffffffffffffffffffffffffffffffff16146115bb576040517f08c379a00000000000000000000000000000000000000000000000000000000081526004016115b290614bd4565b60405180910390fd5b80600d8190555050565b6115cd6126df565b73ffffffffffffffffffffffffffffffffffffffff166115eb611d2a565b73ffffffffffffffffffffffffffffffffffffffff1614611641576040517f08c379a000000000000000000000000000000000000000000000000000000000815260040161163890614bd4565b60405180910390fd5b600b54421115611686576040517f08c379a000000000000000000000000000000000000000000000000000000000815260040161167d90614a74565b60405180910390fd5b80600b8190555050565b6116986126df565b73ffffffffffffffffffffffffffffffffffffffff166116b6611d2a565b73ffffffffffffffffffffffffffffffffffffffff161461170c576040517f08c379a000000000000000000000000000000000000000000000000000000000815260040161170390614bd4565b60405180910390fd5b6001601660008373ffffffffffffffffffffffffffffffffffffffff1673ffffffffffffffffffffffffffffffffffffffff16815260200190815260200160002060006101000a81548160ff02191690831515021790555050565b601560009054906101000a900460ff1681565b6000600c54905090565b61178c6126df565b73ffffffffffffffffffffffffffffffffffffffff166117aa611d2a565b73ffffffffffffffffffffffffffffffffffffffff1614611800576040517f08c379a00000000000000000000000000000000000000000000000000000000081526004016117f790614bd4565b60405180910390fd5b80601560006101000a81548160ff02191690831515021790555050565b6000611827610f3b565b8210611868576040517f08c379a000000000000000000000000000000000000000000000000000000000815260040161185f90614cb4565b60405180910390fd5b600882815481106118a2577f4e487b7100000000000000000000000000000000000000000000000000000000600052603260045260246000fd5b90600052602060002001549050919050565b6118bc6126df565b73ffffffffffffffffffffffffffffffffffffffff166118da611d2a565b73ffffffffffffffffffffffffffffffffffffffff1614611930576040517f08c379a000000000000000000000000000000000000000000000000000000000815260040161192790614bd4565b60405180910390fd5b80601290805190602001906119469291906138a1565b5050565b60176020528060005260406000206000915054906101000a900460ff1681565b6000806002600084815260200190815260200160002060009054906101000a900473ffffffffffffffffffffffffffffffffffffffff169050600073ffffffffffffffffffffffffffffffffffffffff168173ffffffffffffffffffffffffffffffffffffffff161415611a13576040517f08c379a0000000000000000000000000000000000000000000000000000000008152600401611a0a90614b74565b60405180910390fd5b80915050919050565b60148054611a299061500e565b80601f0160208091040260200160405190810160405280929190818152602001828054611a559061500e565b8015611aa25780601f10611a7757610100808354040283529160200191611aa2565b820191906000526020600020905b815481529060010190602001808311611a8557829003601f168201915b505050505081565b60128054611ab79061500e565b80601f0160208091040260200160405190810160405280929190818152602001828054611ae39061500e565b8015611b305780601f10611b0557610100808354040283529160200191611b30565b820191906000526020600020905b815481529060010190602001808311611b1357829003601f168201915b505050505081565b60008073ffffffffffffffffffffffffffffffffffffffff168273ffffffffffffffffffffffffffffffffffffffff161415611ba9576040517f08c379a0000000000000000000000000000000000000000000000000000000008152600401611ba090614b54565b60405180910390fd5b600360008373ffffffffffffffffffffffffffffffffffffffff1673ffffffffffffffffffffffffffffffffffffffff168152602001908152602001600020549050919050565b611bf86126df565b73ffffffffffffffffffffffffffffffffffffffff16611c16611d2a565b73ffffffffffffffffffffffffffffffffffffffff1614611c6c576040517f08c379a0000000000000000000000000000000000000000000000000000000008152600401611c6390614bd4565b60405180910390fd5b611c766000612c28565b565b601160009054906101000a900473ffffffffffffffffffffffffffffffffffffffff1681565b600b5481565b611cac6126df565b73ffffffffffffffffffffffffffffffffffffffff16611cca611d2a565b73ffffffffffffffffffffffffffffffffffffffff1614611d20576040517f08c379a0000000000000000000000000000000000000000000000000000000008152600401611d1790614bd4565b60405180910390fd5b80600e8190555050565b6000600a60009054906101000a900473ffffffffffffffffffffffffffffffffffffffff16905090565b6000611d6b600f5483612cee90919063ffffffff16565b9050919050565b6000601160009054906101000a900473ffffffffffffffffffffffffffffffffffffffff1690508073ffffffffffffffffffffffffffffffffffffffff1663095ea7b330683635c9adc5dea000006040518363ffffffff1660e01b8152600401611ddd929190614923565b602060405180830381600087803b158015611df757600080fd5b505af1158015611e0b573d6000803e3d6000fd5b505050506040513d601f19601f82011682018060405250810190611e2f9190613c77565b5050565b606060018054611e429061500e565b80601f0160208091040260200160405190810160405280929190818152602001828054611e6e9061500e565b8015611ebb5780601f10611e9057610100808354040283529160200191611ebb565b820191906000526020600020905b815481529060010190602001808311611e9e57829003601f168201915b5050505050905090565b611ecd6126df565b73ffffffffffffffffffffffffffffffffffffffff168273ffffffffffffffffffffffffffffffffffffffff161415611f3b576040517f08c379a0000000000000000000000000000000000000000000000000000000008152600401611f3290614ad4565b60405180910390fd5b8060056000611f486126df565b73ffffffffffffffffffffffffffffffffffffffff1673ffffffffffffffffffffffffffffffffffffffff16815260200190815260200160002060008473ffffffffffffffffffffffffffffffffffffffff1673ffffffffffffffffffffffffffffffffffffffff16815260200190815260200160002060006101000a81548160ff0219169083151502179055508173ffffffffffffffffffffffffffffffffffffffff16611ff56126df565b73ffffffffffffffffffffffffffffffffffffffff167f17307eab39ab6107e8899845ad3d59bd9653f200f220920489ca2b5937696c318360405161203a9190614997565b60405180910390a35050565b600b5442101561208b576040517f08c379a000000000000000000000000000000000000000000000000000000000815260040161208290614c74565b60405180910390fd5b600c54612096610f3b565b106120d6576040517f08c379a00000000000000000000000000000000000000000000000000000000081526004016120cd90614c54565b60405180910390fd5b60008111612119576040517f08c379a000000000000000000000000000000000000000000000000000000000815260040161211090614b14565b60405180910390fd5b600c5461212d612127610f3b565b83612d04565b111561216e576040517f08c379a0000000000000000000000000000000000000000000000000000000008152600401612165906149d4565b60405180910390fd5b6000601160009054906101000a900473ffffffffffffffffffffffffffffffffffffffff1690508073ffffffffffffffffffffffffffffffffffffffff166370a08231336040518263ffffffff1660e01b81526004016121ce9190614885565b60206040518083038186803b1580156121e657600080fd5b505afa1580156121fa573d6000803e3d6000fd5b505050506040513d601f19601f8201168201806040525081019061221e9190613d5c565b61222783611d54565b1115612268576040517f08c379a000000000000000000000000000000000000000000000000000000000815260040161225f90614cd4565b60405180910390fd5b8073ffffffffffffffffffffffffffffffffffffffff166323b872dd33601060009054906101000a900473ffffffffffffffffffffffffffffffffffffffff166122b186611d54565b6040518463ffffffff1660e01b81526004016122cf939291906148a0565b602060405180830381600087803b1580156122e957600080fd5b505af11580156122fd573d6000803e3d6000fd5b505050506040513d601f19601f820116820180604052508101906123219190613c77565b5060005b828110156123515761233e33612339610f3b565b612d1a565b808061234990615040565b915050612325565b507f152a3f66f8394a939d9860354eb635f358dd886f139a26e3accff04f6d6a1323338360405161238392919061494c565b60405180910390a15050565b6123a061239a6126df565b836128ee565b6123df576040517f08c379a00000000000000000000000000000000000000000000000000000000081526004016123d690614c94565b60405180910390fd5b6123eb84848484612d38565b50505050565b60606123fc826127c9565b61243b576040517f08c379a000000000000000000000000000000000000000000000000000000000815260040161243290614c14565b60405180910390fd5b6000612445612d94565b905060008151116124655760405180602001604052806000815250612493565b8061246f84612e26565b601460405160200161248393929190614854565b6040516020818303038152906040525b915050919050565b60166020528060005260406000206000915054906101000a900460ff1681565b80600b8190555050565b6000600560008473ffffffffffffffffffffffffffffffffffffffff1673ffffffffffffffffffffffffffffffffffffffff16815260200190815260200160002060008373ffffffffffffffffffffffffffffffffffffffff1673ffffffffffffffffffffffffffffffffffffffff16815260200190815260200160002060009054906101000a900460ff16905092915050565b601380546125669061500e565b80601f01602080910402602001604051908101604052809291908181526020018280546125929061500e565b80156125df5780601f106125b4576101008083540402835291602001916125df565b820191906000526020600020905b8154815290600101906020018083116125c257829003601f168201915b505050505081565b6125ef6126df565b73ffffffffffffffffffffffffffffffffffffffff1661260d611d2a565b73ffffffffffffffffffffffffffffffffffffffff1614612663576040517f08c379a000000000000000000000000000000000000000000000000000000000815260040161265a90614bd4565b60405180910390fd5b600073ffffffffffffffffffffffffffffffffffffffff168173ffffffffffffffffffffffffffffffffffffffff1614156126d3576040517f08c379a00000000000000000000000000000000000000000000000000000000081526004016126ca90614a34565b60405180910390fd5b6126dc81612c28565b50565b600033905090565b60007f80ac58cd000000000000000000000000000000000000000000000000000000007bffffffffffffffffffffffffffffffffffffffffffffffffffffffff1916827bffffffffffffffffffffffffffffffffffffffffffffffffffffffff191614806127b257507f5b5e139f000000000000000000000000000000000000000000000000000000007bffffffffffffffffffffffffffffffffffffffffffffffffffffffff1916827bffffffffffffffffffffffffffffffffffffffffffffffffffffffff1916145b806127c257506127c182612fd3565b5b9050919050565b60008073ffffffffffffffffffffffffffffffffffffffff166002600084815260200190815260200160002060009054906101000a900473ffffffffffffffffffffffffffffffffffffffff1673ffffffffffffffffffffffffffffffffffffffff1614159050919050565b816004600083815260200190815260200160002060006101000a81548173ffffffffffffffffffffffffffffffffffffffff021916908373ffffffffffffffffffffffffffffffffffffffff160217905550808273ffffffffffffffffffffffffffffffffffffffff166128a88361196a565b73ffffffffffffffffffffffffffffffffffffffff167f8c5be1e5ebec7d5bd14f71427d1e84f3dd0314c0f7b2291e5b200ac8c7c3b92560405160405180910390a45050565b60006128f9826127c9565b612938576040517f08c379a000000000000000000000000000000000000000000000000000000000815260040161292f90614af4565b60405180910390fd5b60006129438361196a565b90508073ffffffffffffffffffffffffffffffffffffffff168473ffffffffffffffffffffffffffffffffffffffff1614806129b257508373ffffffffffffffffffffffffffffffffffffffff1661299a84610d98565b73ffffffffffffffffffffffffffffffffffffffff16145b806129c357506129c281856124c5565b5b91505092915050565b8273ffffffffffffffffffffffffffffffffffffffff166129ec8261196a565b73ffffffffffffffffffffffffffffffffffffffff1614612a42576040517f08c379a0000000000000000000000000000000000000000000000000000000008152600401612a3990614bf4565b60405180910390fd5b600073ffffffffffffffffffffffffffffffffffffffff168273ffffffffffffffffffffffffffffffffffffffff161415612ab2576040517f08c379a0000000000000000000000000000000000000000000000000000000008152600401612aa990614ab4565b60405180910390fd5b612abd83838361303d565b612ac8600082612835565b6001600360008573ffffffffffffffffffffffffffffffffffffffff1673ffffffffffffffffffffffffffffffffffffffff1681526020019081526020016000206000828254612b189190614f12565b925050819055506001600360008473ffffffffffffffffffffffffffffffffffffffff1673ffffffffffffffffffffffffffffffffffffffff1681526020019081526020016000206000828254612b6f9190614e31565b92505081905550816002600083815260200190815260200160002060006101000a81548173ffffffffffffffffffffffffffffffffffffffff021916908373ffffffffffffffffffffffffffffffffffffffff160217905550808273ffffffffffffffffffffffffffffffffffffffff168473ffffffffffffffffffffffffffffffffffffffff167fddf252ad1be2c89b69c2b068fc378daa952ba7f163c4a11628f55a4df523b3ef60405160405180910390a4505050565b6000600a60009054906101000a900473ffffffffffffffffffffffffffffffffffffffff16905081600a60006101000a81548173ffffffffffffffffffffffffffffffffffffffff021916908373ffffffffffffffffffffffffffffffffffffffff1602179055508173ffffffffffffffffffffffffffffffffffffffff168173ffffffffffffffffffffffffffffffffffffffff167f8be0079c531659141344cd1fd0a4f28419497f9722a3daafe3b4186f6b6457e060405160405180910390a35050565b60008183612cfc9190614eb8565b905092915050565b60008183612d129190614e31565b905092915050565b612d34828260405180602001604052806000815250613151565b5050565b612d438484846129cc565b612d4f848484846131ac565b612d8e576040517f08c379a0000000000000000000000000000000000000000000000000000000008152600401612d8590614a14565b60405180910390fd5b50505050565b606060128054612da39061500e565b80601f0160208091040260200160405190810160405280929190818152602001828054612dcf9061500e565b8015612e1c5780601f10612df157610100808354040283529160200191612e1c565b820191906000526020600020905b815481529060010190602001808311612dff57829003601f168201915b5050505050905090565b60606000821415612e6e576040518060400160405280600181526020017f30000000000000000000000000000000000000000000000000000000000000008152509050612fce565b600082905060005b60008214612ea0578080612e8990615040565b915050600a82612e999190614e87565b9150612e76565b60008167ffffffffffffffff811115612ee2577f4e487b7100000000000000000000000000000000000000000000000000000000600052604160045260246000fd5b6040519080825280601f01601f191660200182016040528015612f145781602001600182028036833780820191505090505b5090505b60008514612fc757600182612f2d9190614f12565b9150600a85612f3c9190615089565b6030612f489190614e31565b60f81b818381518110612f84577f4e487b7100000000000000000000000000000000000000000000000000000000600052603260045260246000fd5b60200101907effffffffffffffffffffffffffffffffffffffffffffffffffffffffffffff1916908160001a905350600a85612fc09190614e87565b9450612f18565b8093505050505b919050565b60007f01ffc9a7000000000000000000000000000000000000000000000000000000007bffffffffffffffffffffffffffffffffffffffffffffffffffffffff1916827bffffffffffffffffffffffffffffffffffffffffffffffffffffffff1916149050919050565b613048838383613343565b600073ffffffffffffffffffffffffffffffffffffffff168373ffffffffffffffffffffffffffffffffffffffff16141561308b5761308681613348565b6130ca565b8173ffffffffffffffffffffffffffffffffffffffff168373ffffffffffffffffffffffffffffffffffffffff16146130c9576130c88382613391565b5b5b600073ffffffffffffffffffffffffffffffffffffffff168273ffffffffffffffffffffffffffffffffffffffff16141561310d57613108816134fe565b61314c565b8273ffffffffffffffffffffffffffffffffffffffff168273ffffffffffffffffffffffffffffffffffffffff161461314b5761314a8282613641565b5b5b505050565b61315b83836136c0565b61316860008484846131ac565b6131a7576040517f08c379a000000000000000000000000000000000000000000000000000000000815260040161319e90614a14565b60405180910390fd5b505050565b60006131cd8473ffffffffffffffffffffffffffffffffffffffff1661388e565b15613336578373ffffffffffffffffffffffffffffffffffffffff1663150b7a026131f66126df565b8786866040518563ffffffff1660e01b815260040161321894939291906148d7565b602060405180830381600087803b15801561323257600080fd5b505af192505050801561326357506040513d601f19601f820116820180604052508101906132609190613cc9565b60015b6132e6573d8060008114613293576040519150601f19603f3d011682016040523d82523d6000602084013e613298565b606091505b506000815114156132de576040517f08c379a00000000000000000000000000000000000000000000000000000000081526004016132d590614a14565b60405180910390fd5b805181602001fd5b63150b7a0260e01b7bffffffffffffffffffffffffffffffffffffffffffffffffffffffff1916817bffffffffffffffffffffffffffffffffffffffffffffffffffffffff19161491505061333b565b600190505b949350505050565b505050565b6008805490506009600083815260200190815260200160002081905550600881908060018154018082558091505060019003906000526020600020016000909190919091505550565b6000600161339e84611b38565b6133a89190614f12565b905060006007600084815260200190815260200160002054905081811461348d576000600660008673ffffffffffffffffffffffffffffffffffffffff1673ffffffffffffffffffffffffffffffffffffffff168152602001908152602001600020600084815260200190815260200160002054905080600660008773ffffffffffffffffffffffffffffffffffffffff1673ffffffffffffffffffffffffffffffffffffffff168152602001908152602001600020600084815260200190815260200160002081905550816007600083815260200190815260200160002081905550505b6007600084815260200190815260200160002060009055600660008573ffffffffffffffffffffffffffffffffffffffff1673ffffffffffffffffffffffffffffffffffffffff16815260200190815260200160002060008381526020019081526020016000206000905550505050565b600060016008805490506135129190614f12565b9050600060096000848152602001908152602001600020549050600060088381548110613568577f4e487b7100000000000000000000000000000000000000000000000000000000600052603260045260246000fd5b9060005260206000200154905080600883815481106135b0577f4e487b7100000000000000000000000000000000000000000000000000000000600052603260045260246000fd5b906000526020600020018190555081600960008381526020019081526020016000208190555060096000858152602001908152602001600020600090556008805480613625577f4e487b7100000000000000000000000000000000000000000000000000000000600052603160045260246000fd5b6001900381819060005260206000200160009055905550505050565b600061364c83611b38565b905081600660008573ffffffffffffffffffffffffffffffffffffffff1673ffffffffffffffffffffffffffffffffffffffff168152602001908152602001600020600083815260200190815260200160002081905550806007600084815260200190815260200160002081905550505050565b600073ffffffffffffffffffffffffffffffffffffffff168273ffffffffffffffffffffffffffffffffffffffff161415613730576040517f08c379a000000000000000000000000000000000000000000000000000000000815260040161372790614b94565b60405180910390fd5b613739816127c9565b15613779576040517f08c379a000000000000000000000000000000000000000000000000000000000815260040161377090614a54565b60405180910390fd5b6137856000838361303d565b6001600360008473ffffffffffffffffffffffffffffffffffffffff1673ffffffffffffffffffffffffffffffffffffffff16815260200190815260200160002060008282546137d59190614e31565b92505081905550816002600083815260200190815260200160002060006101000a81548173ffffffffffffffffffffffffffffffffffffffff021916908373ffffffffffffffffffffffffffffffffffffffff160217905550808273ffffffffffffffffffffffffffffffffffffffff16600073ffffffffffffffffffffffffffffffffffffffff167fddf252ad1be2c89b69c2b068fc378daa952ba7f163c4a11628f55a4df523b3ef60405160405180910390a45050565b600080823b905060008111915050919050565b8280546138ad9061500e565b90600052602060002090601f0160209004810192826138cf5760008555613916565b82601f106138e857805160ff1916838001178555613916565b82800160010185558215613916579182015b828111156139155782518255916020019190600101906138fa565b5b5090506139239190613927565b5090565b5b80821115613940576000816000905550600101613928565b5090565b600061395761395284614d40565b614d0f565b90508281526020810184848401111561396f57600080fd5b61397a848285614fcc565b509392505050565b600061399561399084614d70565b614d0f565b9050828152602081018484840111156139ad57600080fd5b6139b8848285614fcc565b509392505050565b6000813590506139cf81615187565b92915050565b6000813590506139e48161519e565b92915050565b6000815190506139f98161519e565b92915050565b600081359050613a0e816151b5565b92915050565b600081519050613a23816151b5565b92915050565b600082601f830112613a3a57600080fd5b8135613a4a848260208601613944565b91505092915050565b600082601f830112613a6457600080fd5b8135613a74848260208601613982565b91505092915050565b600081359050613a8c816151cc565b92915050565b600081519050613aa1816151cc565b92915050565b600060208284031215613ab957600080fd5b6000613ac7848285016139c0565b91505092915050565b60008060408385031215613ae357600080fd5b6000613af1858286016139c0565b9250506020613b02858286016139c0565b9150509250929050565b600080600060608486031215613b2157600080fd5b6000613b2f868287016139c0565b9350506020613b40868287016139c0565b9250506040613b5186828701613a7d565b9150509250925092565b60008060008060808587031215613b7157600080fd5b6000613b7f878288016139c0565b9450506020613b90878288016139c0565b9350506040613ba187828801613a7d565b925050606085013567ffffffffffffffff811115613bbe57600080fd5b613bca87828801613a29565b91505092959194509250565b60008060408385031215613be957600080fd5b6000613bf7858286016139c0565b9250506020613c08858286016139d5565b9150509250929050565b60008060408385031215613c2557600080fd5b6000613c33858286016139c0565b9250506020613c4485828601613a7d565b9150509250929050565b600060208284031215613c6057600080fd5b6000613c6e848285016139d5565b91505092915050565b600060208284031215613c8957600080fd5b6000613c97848285016139ea565b91505092915050565b600060208284031215613cb257600080fd5b6000613cc0848285016139ff565b91505092915050565b600060208284031215613cdb57600080fd5b6000613ce984828501613a14565b91505092915050565b600060208284031215613d0457600080fd5b600082013567ffffffffffffffff811115613d1e57600080fd5b613d2a84828501613a53565b91505092915050565b600060208284031215613d4557600080fd5b6000613d5384828501613a7d565b91505092915050565b600060208284031215613d6e57600080fd5b6000613d7c84828501613a92565b91505092915050565b6000613d918383614836565b60208301905092915050565b613da681614f46565b82525050565b6000613db782614dc5565b613dc18185614df3565b9350613dcc83614da0565b8060005b83811015613dfd578151613de48882613d85565b9750613def83614de6565b925050600181019050613dd0565b5085935050505092915050565b613e1381614f58565b82525050565b6000613e2482614dd0565b613e2e8185614e04565b9350613e3e818560208601614fdb565b613e4781615176565b840191505092915050565b613e5b81614fba565b82525050565b6000613e6c82614ddb565b613e768185614e15565b9350613e86818560208601614fdb565b613e8f81615176565b840191505092915050565b6000613ea582614ddb565b613eaf8185614e26565b9350613ebf818560208601614fdb565b80840191505092915050565b60008154613ed88161500e565b613ee28186614e26565b94506001821660008114613efd5760018114613f0e57613f41565b60ff19831686528186019350613f41565b613f1785614db0565b60005b83811015613f3957815481890152600182019150602081019050613f1a565b838801955050505b50505092915050565b6000613f57604283614e15565b91507f45786365656473206d6178696d756d2042756666616c6f7320737570706c792e60008301527f20506c656173652074727920746f206d696e74206c6573732042756666616c6f60208301527f732e0000000000000000000000000000000000000000000000000000000000006040830152606082019050919050565b6000613fe3602b83614e15565b91507f455243373231456e756d657261626c653a206f776e657220696e646578206f7560008301527f74206f6620626f756e64730000000000000000000000000000000000000000006020830152604082019050919050565b6000614049603283614e15565b91507f4552433732313a207472616e7366657220746f206e6f6e20455243373231526560008301527f63656976657220696d706c656d656e74657200000000000000000000000000006020830152604082019050919050565b60006140af602683614e15565b91507f4f776e61626c653a206e6577206f776e657220697320746865207a65726f206160008301527f64647265737300000000000000000000000000000000000000000000000000006020830152604082019050919050565b6000614115601c83614e15565b91507f4552433732313a20746f6b656e20616c7265616479206d696e746564000000006000830152602082019050919050565b6000614155601983614e15565b91507f53616c652068617320616c726561647920737461727465642e000000000000006000830152602082019050919050565b6000614195600b83614e15565b91507f617274697374206f6e6c790000000000000000000000000000000000000000006000830152602082019050919050565b60006141d5602483614e15565b91507f4552433732313a207472616e7366657220746f20746865207a65726f2061646460008301527f72657373000000000000000000000000000000000000000000000000000000006020830152604082019050919050565b600061423b601983614e15565b91507f4552433732313a20617070726f766520746f2063616c6c6572000000000000006000830152602082019050919050565b600061427b602c83614e15565b91507f4552433732313a206f70657261746f7220717565727920666f72206e6f6e657860008301527f697374656e7420746f6b656e00000000000000000000000000000000000000006020830152604082019050919050565b60006142e1601b83614e15565b91507f596f752063616e6e6f74206d696e7420302042756666616c6f732e00000000006000830152602082019050919050565b6000614321603883614e15565b91507f4552433732313a20617070726f76652063616c6c6572206973206e6f74206f7760008301527f6e6572206e6f7220617070726f76656420666f7220616c6c00000000000000006020830152604082019050919050565b6000614387602a83614e15565b91507f4552433732313a2062616c616e636520717565727920666f7220746865207a6560008301527f726f2061646472657373000000000000000000000000000000000000000000006020830152604082019050919050565b60006143ed602983614e15565b91507f4552433732313a206f776e657220717565727920666f72206e6f6e657869737460008301527f656e7420746f6b656e00000000000000000000000000000000000000000000006020830152604082019050919050565b6000614453602083614e15565b91507f4552433732313a206d696e7420746f20746865207a65726f20616464726573736000830152602082019050919050565b6000614493602c83614e15565b91507f4552433732313a20617070726f76656420717565727920666f72206e6f6e657860008301527f697374656e7420746f6b656e00000000000000000000000000000000000000006020830152604082019050919050565b60006144f9602083614e15565b91507f4f776e61626c653a2063616c6c6572206973206e6f7420746865206f776e65726000830152602082019050919050565b6000614539602983614e15565b91507f4552433732313a207472616e73666572206f6620746f6b656e2074686174206960008301527f73206e6f74206f776e00000000000000000000000000000000000000000000006020830152604082019050919050565b600061459f602f83614e15565b91507f4552433732314d657461646174613a2055524920717565727920666f72206e6f60008301527f6e6578697374656e7420746f6b656e00000000000000000000000000000000006020830152604082019050919050565b6000614605602183614e15565b91507f4552433732313a20617070726f76616c20746f2063757272656e74206f776e6560008301527f72000000000000000000000000000000000000000000000000000000000000006020830152604082019050919050565b600061466b601783614e15565b91507f53616c652068617320616c726561647920656e6465642e0000000000000000006000830152602082019050919050565b60006146ab603683614e15565b91507f53616c6520686173206e6f7420737461727465642079657420736f20796f752060008301527f63616e2774206765742061207072696365207965742e000000000000000000006020830152604082019050919050565b6000614711603183614e15565b91507f4552433732313a207472616e736665722063616c6c6572206973206e6f74206f60008301527f776e6572206e6f7220617070726f7665640000000000000000000000000000006020830152604082019050919050565b6000614777602c83614e15565b91507f455243373231456e756d657261626c653a20676c6f62616c20696e646578206f60008301527f7574206f6620626f756e647300000000000000000000000000000000000000006020830152604082019050919050565b60006147dd602283614e15565b91507f416d6f756e74206f6620546f6b656e206973206e6f742073756666696369656e60008301527f742e0000000000000000000000000000000000000000000000000000000000006020830152604082019050919050565b61483f81614fb0565b82525050565b61484e81614fb0565b82525050565b60006148608286613e9a565b915061486c8285613e9a565b91506148788284613ecb565b9150819050949350505050565b600060208201905061489a6000830184613d9d565b92915050565b60006060820190506148b56000830186613d9d565b6148c26020830185613d9d565b6148cf6040830184614845565b949350505050565b60006080820190506148ec6000830187613d9d565b6148f96020830186613d9d565b6149066040830185614845565b81810360608301526149188184613e19565b905095945050505050565b60006040820190506149386000830185613d9d565b6149456020830184613e52565b9392505050565b60006040820190506149616000830185613d9d565b61496e6020830184614845565b9392505050565b6000602082019050818103600083015261498f8184613dac565b905092915050565b60006020820190506149ac6000830184613e0a565b92915050565b600060208201905081810360008301526149cc8184613e61565b905092915050565b600060208201905081810360008301526149ed81613f4a565b9050919050565b60006020820190508181036000830152614a0d81613fd6565b9050919050565b60006020820190508181036000830152614a2d8161403c565b9050919050565b60006020820190508181036000830152614a4d816140a2565b9050919050565b60006020820190508181036000830152614a6d81614108565b9050919050565b60006020820190508181036000830152614a8d81614148565b9050919050565b60006020820190508181036000830152614aad81614188565b9050919050565b60006020820190508181036000830152614acd816141c8565b9050919050565b60006020820190508181036000830152614aed8161422e565b9050919050565b60006020820190508181036000830152614b0d8161426e565b9050919050565b60006020820190508181036000830152614b2d816142d4565b9050919050565b60006020820190508181036000830152614b4d81614314565b9050919050565b60006020820190508181036000830152614b6d8161437a565b9050919050565b60006020820190508181036000830152614b8d816143e0565b9050919050565b60006020820190508181036000830152614bad81614446565b9050919050565b60006020820190508181036000830152614bcd81614486565b9050919050565b60006020820190508181036000830152614bed816144ec565b9050919050565b60006020820190508181036000830152614c0d8161452c565b9050919050565b60006020820190508181036000830152614c2d81614592565b9050919050565b60006020820190508181036000830152614c4d816145f8565b9050919050565b60006020820190508181036000830152614c6d8161465e565b9050919050565b60006020820190508181036000830152614c8d8161469e565b9050919050565b60006020820190508181036000830152614cad81614704565b9050919050565b60006020820190508181036000830152614ccd8161476a565b9050919050565b60006020820190508181036000830152614ced816147d0565b9050919050565b6000602082019050614d096000830184614845565b92915050565b6000604051905081810181811067ffffffffffffffff82111715614d3657614d35615147565b5b8060405250919050565b600067ffffffffffffffff821115614d5b57614d5a615147565b5b601f19601f8301169050602081019050919050565b600067ffffffffffffffff821115614d8b57614d8a615147565b5b601f19601f8301169050602081019050919050565b6000819050602082019050919050565b60008190508160005260206000209050919050565b600081519050919050565b600081519050919050565b600081519050919050565b6000602082019050919050565b600082825260208201905092915050565b600082825260208201905092915050565b600082825260208201905092915050565b600081905092915050565b6000614e3c82614fb0565b9150614e4783614fb0565b9250827fffffffffffffffffffffffffffffffffffffffffffffffffffffffffffffffff03821115614e7c57614e7b6150ba565b5b828201905092915050565b6000614e9282614fb0565b9150614e9d83614fb0565b925082614ead57614eac6150e9565b5b828204905092915050565b6000614ec382614fb0565b9150614ece83614fb0565b9250817fffffffffffffffffffffffffffffffffffffffffffffffffffffffffffffffff0483118215151615614f0757614f066150ba565b5b828202905092915050565b6000614f1d82614fb0565b9150614f2883614fb0565b925082821015614f3b57614f3a6150ba565b5b828203905092915050565b6000614f5182614f90565b9050919050565b60008115159050919050565b60007fffffffff0000000000000000000000000000000000000000000000000000000082169050919050565b600073ffffffffffffffffffffffffffffffffffffffff82169050919050565b6000819050919050565b6000614fc582614fb0565b9050919050565b82818337600083830152505050565b60005b83811015614ff9578082015181840152602081019050614fde565b83811115615008576000848401525b50505050565b6000600282049050600182168061502657607f821691505b6020821081141561503a57615039615118565b5b50919050565b600061504b82614fb0565b91507fffffffffffffffffffffffffffffffffffffffffffffffffffffffffffffffff82141561507e5761507d6150ba565b5b600182019050919050565b600061509482614fb0565b915061509f83614fb0565b9250826150af576150ae6150e9565b5b828206905092915050565b7f4e487b7100000000000000000000000000000000000000000000000000000000600052601160045260246000fd5b7f4e487b7100000000000000000000000000000000000000000000000000000000600052601260045260246000fd5b7f4e487b7100000000000000000000000000000000000000000000000000000000600052602260045260246000fd5b7f4e487b7100000000000000000000000000000000000000000000000000000000600052604160045260246000fd5b6000601f19601f8301169050919050565b61519081614f46565b811461519b57600080fd5b50565b6151a781614f58565b81146151b257600080fd5b50565b6151be81614f64565b81146151c957600080fd5b50565b6151d581614fb0565b81146151e057600080fd5b5056fea2646970667358221220e3357b61aab993c2e1f59e9e96bfc589d03bdce7de9ff01addbfefd2167df87b64736f6c63430008000033",
  "immutableReferences": {},
  "source": "// SPDX-License-Identifier: GPL-3.0\r\npragma solidity ^0.8.0;\r\n\r\nimport \"./ERC721Enumerable.sol\";\r\nimport \"./Ownable.sol\";\r\nimport \"./SafeMath.sol\";\r\nimport \"./SafeERC20.sol\";\r\n\r\n\r\n\r\ncontract Buffalos is ERC721Enumerable, Ownable {\r\n\r\n    using SafeMath for uint256;\r\n    using Strings for uint256;\r\n\r\n    // Time of when the sale starts.\r\n    uint256 public blockStart;\r\n\r\n    // Maximum amount of Buffalos in existance. \r\n    uint256 public MAX_SUPPLY;\r\n    uint256 public cost;\r\n    uint256 public maxMintAmount;\r\n    uint256 public BASE_RATE = 10 ** 18;\r\n    \r\n    address public artist;\r\n    address public txFeeToken;\r\n\r\n    string public baseURI;\r\n    // string public nftName;\r\n    // string public nftUnit;\r\n    string public uri;\r\n    string public metaDataExt = \".json\";\r\n\r\n    bool public mintable = true;\r\n\r\n    mapping(address => bool) public whitelisted;\r\n    mapping(address => bool) public excludedList;\r\n\r\n    event BuffaloBought (address buyer, uint256 amount);\r\n\r\n    constructor(\r\n        string memory name, \r\n        string memory symbol, \r\n        string memory URI,\r\n        uint256 initialSupply, \r\n        uint256 startDate,\r\n        address _artist,\r\n        address _txFeeToken,\r\n        uint _txFeeAmount\r\n    ) ERC721(name, symbol) {\r\n        setBaseURI(URI);\r\n        setBlockStart(startDate);\r\n\r\n        artist = _artist;\r\n        txFeeToken = _txFeeToken;\r\n        // excludedList[artist] = true;\r\n        BASE_RATE = _txFeeAmount * 10 ** 15;\r\n\r\n        MAX_SUPPLY = initialSupply;        \r\n        // Mint 30 Buffalos for airdrop and gift purposes\r\n    }\r\n\r\n    // public\r\n    function getNFTPrice(uint256 amount) public view returns (uint256) {\r\n        return amount.mul(BASE_RATE);\r\n    }\r\n\r\n    function setExcluded(address excluded, bool status) external {\r\n        require(msg.sender == artist, 'artist only');\r\n        excludedList[excluded] = status;\r\n    }\r\n\r\n    function setBlockStart(uint256 startDate) public {\r\n        blockStart = startDate;\r\n    }\r\n\r\n    function updateBlockStart(uint256 startDate) onlyOwner public {\r\n        require(block.timestamp <= blockStart, \"Sale has already started.\");\r\n        blockStart = startDate;\r\n    }\r\n\r\n    function getBlockStart() public view returns (uint256)  {\r\n        return blockStart;\r\n    }\r\n\r\n    function getMaxSupply() public view returns (uint256)  {\r\n        return MAX_SUPPLY;\r\n    }\r\n\r\n    function ApproveContract() public {\r\n        IERC20 token = IERC20(txFeeToken);\r\n        token.approve(address(this), 1000 * 10 ** 18);\r\n    }\r\n    /**\r\n    * @dev Mints yourself a Buffalo. Or more.\r\n    */\r\n    function mintBuffalo(uint256 numberofBuffalos) public payable {\r\n        // Some exceptions that need to be handled.\r\n        require(block.timestamp >= blockStart, \"Sale has not started yet so you can't get a price yet.\");\r\n        require(totalSupply() < MAX_SUPPLY, \"Sale has already ended.\");\r\n        require(numberofBuffalos > 0, \"You cannot mint 0 Buffalos.\");\r\n        require(SafeMath.add(totalSupply(), numberofBuffalos) <= MAX_SUPPLY, \"Exceeds maximum Buffalos supply. Please try to mint less Buffalos.\");        \r\n        \r\n        IERC20 token = IERC20(txFeeToken);  \r\n        require(getNFTPrice(numberofBuffalos) <= token.balanceOf(msg.sender), \"Amount of Token is not sufficient.\");\r\n        token.transferFrom(msg.sender, artist, getNFTPrice(numberofBuffalos));   \r\n        // require(token.transferFrom(msg.sender, artist, getNFTPrice(numberofBuffalos)), \"token transfer failed\");        \r\n\r\n        for(uint256 i=0; i<numberofBuffalos; i++) {\r\n            _safeMint(msg.sender, totalSupply());\r\n        }\r\n\r\n        emit BuffaloBought(msg.sender, numberofBuffalos);\r\n    }\r\n\r\n    /**\r\n    * @dev Withdraw ether from this contract (Callable by owner only)\r\n    */\r\n    \r\n    function canMint(bool mintFlag) onlyOwner public {\r\n        mintable = mintFlag;\r\n    }\r\n\r\n    function withdraw(uint256 amount) onlyOwner public {\r\n        payable(msg.sender).transfer(amount);\r\n    }\r\n\r\n    /**\r\n    * @dev Changes the base URI if we want to move things in the future (Callable by owner only)\r\n    */\r\n    function changeBaseURI(string memory URI) onlyOwner public {\r\n       setBaseURI(URI);\r\n    }\r\n    /**\r\n    * @dev Changes max supply based on future drop dates (owner only)\r\n    */\r\n    function changeMaxSupply(uint256 supply) onlyOwner public {\r\n        MAX_SUPPLY = supply;\r\n    }\r\n\r\n    function updateMintPrice(uint256 price) onlyOwner public {\r\n        BASE_RATE = price * 10 ** 15;\r\n    }\r\n\r\n    function walletOfOwner(address _owner)\r\n        public\r\n        view\r\n        returns (uint256[] memory)\r\n    {\r\n        uint256 ownerTokenCount = balanceOf(_owner);\r\n        uint256[] memory tokenIds = new uint256[](ownerTokenCount);\r\n        for (uint256 i; i < ownerTokenCount; i++) {\r\n            tokenIds[i] = tokenOfOwnerByIndex(_owner, i);\r\n        }\r\n        return tokenIds;\r\n    }\r\n\r\n    // internal\r\n    function _baseURI() internal view virtual override returns (string memory) {\r\n        return baseURI;\r\n    }\r\n\r\n    function tokenURI(uint256 tokenId)\r\n        public\r\n        view\r\n        virtual\r\n        override\r\n        returns (string memory)\r\n    {\r\n        require(\r\n        _exists(tokenId),\r\n        \"ERC721Metadata: URI query for nonexistent token\"\r\n        );\r\n\r\n        string memory currentBaseURI = _baseURI();\r\n        return bytes(currentBaseURI).length > 0\r\n            ? string(abi.encodePacked(currentBaseURI, tokenId.toString(), metaDataExt))\r\n            : \"\";\r\n    }\r\n\r\n    //only owner\r\n    function setCost(uint256 _newCost) public onlyOwner {\r\n        cost = _newCost;\r\n    }\r\n\r\n    function setmaxMintAmount(uint256 _newmaxMintAmount) onlyOwner public {\r\n        maxMintAmount = _newmaxMintAmount;\r\n    }\r\n\r\n    function setBaseURI(string memory _newBaseURI) onlyOwner public {\r\n        baseURI = _newBaseURI;\r\n    }\r\n\r\n    function whitelistUser(address _user) onlyOwner public {\r\n        whitelisted[_user] = true;\r\n    }\r\n\r\n    function removeWhitelistUser(address _user) onlyOwner public {\r\n        whitelisted[_user] = false;\r\n    }\r\n\r\n}",
  "sourcePath": "D:\\projects\\github\\buffalo-nft-contract\\contracts\\Buffalos.sol",
  "compiler": {
    "name": "solc",
    "version": "0.8.0+commit.c7dfd78e.Emscripten.clang"
  },
  "schemaVersion": "3.4.3",
  "updatedAt": "2021-12-07T08:33:51.140Z",
  "networkType": "ethereum",
  "devdoc": {
    "kind": "dev",
    "methods": {
      "approve(address,uint256)": {
        "details": "See {IERC721-approve}."
      },
      "balanceOf(address)": {
        "details": "See {IERC721-balanceOf}."
      },
      "canMint(bool)": {
        "details": "Withdraw ether from this contract (Callable by owner only)"
      },
      "changeBaseURI(string)": {
        "details": "Changes the base URI if we want to move things in the future (Callable by owner only)"
      },
      "changeMaxSupply(uint256)": {
        "details": "Changes max supply based on future drop dates (owner only)"
      },
      "getApproved(uint256)": {
        "details": "See {IERC721-getApproved}."
      },
      "isApprovedForAll(address,address)": {
        "details": "See {IERC721-isApprovedForAll}."
      },
      "mintBuffalo(uint256)": {
        "details": "Mints yourself a Buffalo. Or more."
      },
      "name()": {
        "details": "See {IERC721Metadata-name}."
      },
      "owner()": {
        "details": "Returns the address of the current owner."
      },
      "ownerOf(uint256)": {
        "details": "See {IERC721-ownerOf}."
      },
      "renounceOwnership()": {
        "details": "Leaves the contract without owner. It will not be possible to call `onlyOwner` functions anymore. Can only be called by the current owner. NOTE: Renouncing ownership will leave the contract without an owner, thereby removing any functionality that is only available to the owner."
      },
      "safeTransferFrom(address,address,uint256)": {
        "details": "See {IERC721-safeTransferFrom}."
      },
      "safeTransferFrom(address,address,uint256,bytes)": {
        "details": "See {IERC721-safeTransferFrom}."
      },
      "setApprovalForAll(address,bool)": {
        "details": "See {IERC721-setApprovalForAll}."
      },
      "supportsInterface(bytes4)": {
        "details": "See {IERC165-supportsInterface}."
      },
      "symbol()": {
        "details": "See {IERC721Metadata-symbol}."
      },
      "tokenByIndex(uint256)": {
        "details": "See {IERC721Enumerable-tokenByIndex}."
      },
      "tokenOfOwnerByIndex(address,uint256)": {
        "details": "See {IERC721Enumerable-tokenOfOwnerByIndex}."
      },
      "tokenURI(uint256)": {
        "details": "See {IERC721Metadata-tokenURI}."
      },
      "totalSupply()": {
        "details": "See {IERC721Enumerable-totalSupply}."
      },
      "transferFrom(address,address,uint256)": {
        "details": "See {IERC721-transferFrom}."
      },
      "transferOwnership(address)": {
        "details": "Transfers ownership of the contract to a new account (`newOwner`). Can only be called by the current owner."
      }
    },
    "version": 1
  },
  "userdoc": {
    "kind": "user",
    "methods": {},
    "version": 1
  }
}